:1000000058C134C21CC665C164C263C162C161C14A
:1000100060C1E5C15EC131C863C85BC15BC159C184
:1000200058C157C156C19FC7A0C79FC79EC79DC78C
:100030009CC79BC79AC799C798C797C796C795C7C4
:1000400094C793C792C791C790C78FC7FBC68DC788
:100050008CC78BC78AC789C788C787C786C785C724
:1000600084C783C782C781C780C77FC77EC77DC754
:100070007CC77BC7F0C6F4C6F8C677C776C775C716
:1000800074C773C772C771C770C76FC76EC76DC7B4
:100090006CC76BC76AC769C768C767C766C765C7E4
:1000A00064C763C762C761C760C75FC75EC75DC714
:1000B0005CC75BC75AC759C758C757C756C755C744
:1000C00054C753C752C751C750C74FC74EC786C63C
:1000D0004CC7DBC690C649C748C7CCC646C733C75E
:1000E00044C721C742C7EBC6FCC6CBC60CC73DC739
:1000F0003CC79BC6C8C6D6C638C78AC649646C65A5
:100100000D0A001B63436F6D70696C656420417557
:100110006720203920323031382031343A34353AB2
:1001200034382077697468204156522D4743432064
:10013000352E342E3020616E6420415652204C6999
:10014000626320322E302E300D0A00415344572C6A
:1001500073706163652C546F67676C655F6D6F6466
:10016000652C70696E472C6164635F4F6E63652C0C
:10017000436F6C6C646973742C7455726E6469732C
:10018000742C4D61782C6D694E2C6B502C4B642C6B
:100190006B492C656E7465720D0A004B693D004B0E
:1001A000643D004B703D007475726E446973743D1C
:1001B00000636F6C6C446973743D0070696E673DD9
:1001C0000073746F702C20000D0A6164635F6D61B1
:1001D000783D000D0A6164635F6D696E3D002C20FF
:1001E0004B643D002C204B693D000D0A4B703D00D7
:1001F0002C207475726E446973743D00636F6C6C6F
:10020000446973743D000D0A4E65772076616C7504
:10021000653A20004C696E6520666F6C6C6F770DD7
:100220000A0049646C650D0A00436F6C6C69736960
:100230006F6E2061766F69640D0A002C2073746103
:1002400074653D002C206964783D002C206D617838
:10025000446973743D006D696E446973743D002C8C
:10026000207069643D002C206465723D002C20697B
:10027000743D00706F733D002C20006D6F746F72C1
:100280003D00666F72776172642C20006261636B5F
:10029000776172642C20006C6566742C2000726992
:1002A0006768742C20002C20000D0A006164633DF7
:1002B000000011241FBECFE5D4E0DEBFCDBF21E09A
:1002C000A0E6B0E001C01D92A539B207E1F751D612
:1002D000DDC996CE1F920F920FB60F9211248F9305
:1002E000EF93FF93809173018823A1F080916B01BC
:1002F000882381F0E0916200E11107C085B180930D
:10030000940181E0809362001FC0F0E085B1E15765
:10031000FE4F8083809162008F5F853018F4809358
:10032000620012C01092620080917301882341F034
:1003300080916B01811104C081E080936B0104C046
:100340001092730110926B0180916200805A87B9FC
:10035000FF91EF918F910F900FBE0F901F90189506
:1003600085B7816085BF8BB780648BBF10926A01AF
:1003700010926F011092700110927101109272012F
:10038000AD9885E18A95F1F70000AD9A85E38A95ED
:10039000F1F70000AD98829B05C0809160009091BC
:1003A0006100089580916A018823E1F385B78E7F0B
:1003B00085BF8BB78F7B8BBF60916F017091700190
:1003C00080917101909172012CEA33E040E050E09D
:1003D00067D8C901309361002093600008951F928F
:1003E0000F920FB60F9211242F938F939F93AF9379
:1003F000BF9380916F0190917001A0917101B091B4
:10040000720181509F4FAF4FBF4F80936F01909308
:100410007001A0937101B093720181399D44A44091
:10042000B105D0F013BE22B780916F019091700199
:10043000A0917101B0917201820F911DA11DB11D9A
:1004400080936F0190937001A0937101B09372013A
:1004500012BE81E080936A01BF91AF919F918F910D
:100460002F910F900FBE0F901F9018951F920F9213
:100470000FB60F9211242F938F939F93AF93BF9337
:10048000829B03C081E083BF1AC013BE22B7809154
:100490006F0190917001A0917101B0917201820F72
:1004A000911DA11DB11D80936F0190937001A093C8
:1004B0007101B093720112BE81E080936A01BF9115
:1004C000AF919F918F912F910F900FBE0F901F9022
:1004D00018951F920F920FB60F9211242F933F93EE
:1004E0008F939F9380916E018034E1F410926E019E
:1004F00080918F0188231CF49498959A06C080916E
:100500008F01181614F49598949A80916D018823A0
:100510001CF49798969A06C080916D01181614F4F1
:100520009698979A20916E0180918F0130E0082E65
:10053000000C990B99231CF491958195910928172A
:10054000390719F482B38F7C82BB20916E018091B0
:100550006D0130E0082E000C990B99231CF4919545
:10056000819591092817390719F482B38F7382BBDB
:1005700080916E018F5F80936E019F918F913F916B
:100580002F910F900FBE0F901F901895CF93DF9370
:10059000EB0126D64AE065E771E0CE0106D885E793
:1005A00091E010D6DF91CF91089589EA92E018D6B4
:1005B000089586EA92E014D60895EF92FF920F9381
:1005C0001F93CF93DF93E62EF72EEA0109D62197EA
:1005D0000E2D1F2D0FC0F80181918F014AE065E7B4
:1005E00071E090E0F4D785E791E0ECD5209709F031
:1005F000E0DF2197CF3FFFEFDF0769F7DF91CF9172
:100600001F910F91FF90EF90089545E050E060E951
:1006100071E08CEA92E0D1DF089590918F01809192
:100620006D01981724F48EE992E0DAD519C0909103
:100630008F0180916D01891724F487E992E0D0D56C
:100640000FC080918F01882344F480916D0188232D
:1006500024F48CE892E0C4D503C082E892E0C0D5CF
:1006600080918C01813011F4D0DFA3DF60918F0184
:10067000062E000C770B8BE792E088DF60916D010E
:10068000062E000C770B88E792E080DF8EDF08955E
:100690002F923F924F925F926F927F928F929F9292
:1006A000AF92BF92CF92DF92EF92FF920F931F9380
:1006B000CF93DF93CDB7DEB728970FB6F894DEBFA0
:1006C0000FBECDBFC09A86B1806C86B9212C312C6B
:1006D0001E821D82D1C021E020937301809173019D
:1006E0008111FCCF80E891E098878F8305E811E0C5
:1006F00080E89FEFAFEFBFEF89839A83AB83BC8322
:10070000E0E0F0E0812C912C5401412C512C32017D
:10071000DF01A057BE4F8C91AF81B8856D91B8872E
:10072000AF8370E090E0681779070CF4CB01D80133
:100730002D918D0130E0821793070CF4C901821BC3
:10074000930B982F621B730B80E097D66B01770F8A
:10075000EE08FF0829813A814B815C81C701B6010F
:100760007DD6460E571E681E791E8C0C9D1CAE1C35
:10077000BF1C3196DA01C901805C9F4FAF4FBF4F5C
:1007800089839A83AB83BC83E530F10509F6C30105
:10079000B201A5019401A6D669017A01B90183E7E6
:1007A00092E0F4DE8601AD81BE810A1B1B0B2C0C8E
:1007B0003D1C80918D0190918E018C9D90018D9DAD
:1007C000300D9C9D300D11244091680150916901BC
:1007D000249EC001259E900D349E900D1124820F01
:1007E000931F40918A0150918B01049F9001059FB6
:1007F000300D149F300D1124820F931F64E670E0BA
:100800003CD66138710514F060E870E07A83698342
:1008100060387F4F24F420E829838FEF8A83B10169
:100820008DE692E0B3DEB80186E692E0AFDE698144
:100830007A818FE592E0AADEBCDEA981BA81BB2372
:100840003CF4A05CA0938F01B0E4B0936D0108C0AC
:1008500020E420938F0180E49981891B80936D01AE
:10086000DCDEAFEFB1EE24E0A150B0402040E1F774
:1008700000C00000DE82CD82C4D4892B29F480918F
:100880008C01813009F427CF86B18F7386B9C09867
:1008900028960FB6F894DEBF0FBECDBFDF91CF9183
:1008A0001F910F91FF90EF90DF90CF90BF90AF908E
:1008B0009F908F907F906F905F904F903F902F9080
:1008C00008952F923F924F925F926F927F928F92F4
:1008D0009F92AF92BF92CF92DF92EF92FF920F93CF
:1008E0001F93CF93DF93CDB7DEB766970FB6F8941B
:1008F000DEBF0FBECDBF83EE9CE09BBD8ABD2FEF58
:1009000031EE84E0215030408040E1F700C000002B
:10091000FE01319686E1DF011D928A95E9F70F2EDF
:10092000F7E0FF2EF02D0F2EF3E0AF2EF02D0F2E5F
:10093000F5E0BF2EF02D712C512C0F2EF3EE8F2EE3
:10094000FCE09F2EF02D612C212C412C332433947C
:1009500027C106DDEB2DF0E0EE0FFF1F21E030E0B8
:100960002C0F3D1FE20FF31F91838083552079F0F8
:100970006AB57BB580E090E0E3D420E030E044EB62
:1009800053E44DD4B1D47BBD6ABDBA940EC06AB5F0
:100990007BB580E090E0D4D420E030E044EB53E439
:1009A0003FD4A2D47BBD6ABDB39435E0B31202C07C
:1009B0009BBC8ABCBF1420F4AB1420F0562C02C0A0
:1009C00055245394FA14B8F18A2DE62C022D142DD7
:1009D000E82FF0E0EE0FFF1FA1E0B0E0AC0FBD1F6D
:1009E000EA0FFB1F208131810217130710F4E82E54
:1009F00089018F5FF81660F791E09F0D8A2D0F2E09
:100A0000FCE2CF2EF02DD32CE82FF0E0EE0FFF1FED
:100A100021E030E02C0F3D1FE20FF31F20813181D8
:100A20002115310521F02C153D0508F469018F5F72
:100A30009813EACF08C0E62C022D142D0F2EFCE2ED
:100A4000CF2EF02DD32CB60186E592E09FDDB801C4
:100A50008BE492E09BDD0E2D10E0B80184E492E07F
:100A600095DD672D70E08BE392E090DDA2DDD5DDB2
:100A70008FEF870D823050F18091740190E0C8169D
:100A8000D90638F480ED80938F0180936D01762C28
:100A90007EC080916C0190E0C816D90680F433E0E6
:100AA000731609F474C060928F0160926D010F2E6D
:100AB000FAE0FF2EF02DA62C7724739468C080E412
:100AC00080938F0180936D01762C61C092E0791242
:100AD00050C0BA1411F0BF105AC0A4E0AE15D8F03F
:100AE00085E090E0801B910BBAEE8B9F802D112446
:100AF000805C80938F0120E420936D010F2EF7E03E
:100B0000FF2EF02D0F2EF3E0AF2EF02D0F2EF3E081
:100B10007F2EF02D3CC035E03E15C8F480E4809374
:100B20008F01055011099AEE099F002D1124800FA5
:100B300080936D010F2EF7E0FF2EF02D0F2EF3E0C6
:100B4000AF2EF02D0F2EF3E07F2EF02D20C0A0E46D
:100B5000A0938F01A0936D010F2EF7E0FF2EF02DD3
:100B60000F2EF3E0AF2EF02D0F2EF3E07F2EF02DA1
:100B70000EC0B1E07B120BC0BA1431F0BF1007C039
:100B80006894772471F803C06894772471F82FEF84
:100B900031EE84E0215030408040E1F700C0000099
:100BA00030D3892B29F480918C01823009F4D1CE85
:100BB00066960FB6F894DEBF0FBECDBFDF91CF9122
:100BC0001F910F91FF90EF90DF90CF90BF90AF906B
:100BD0009F908F907F906F905F904F903F902F905D
:100BE000089580918C01813021F0A8F0823051F07D
:100BF0001AC082E080938C01C098C29A89E292E088
:100C0000EFD211C010928C0188B38A7F88BB82E238
:100C100092E0E6D208C081E080938C01C298C09A2D
:100C200084E192E0DDD281E080937F0110928F0118
:100C300010926D0183EE9CE09BBD8ABD08951F92CA
:100C40000F920FB60F9211242F933F934F935F9300
:100C50006F937F938F939F93AF93BF93EF93FF9384
:100C60002FEF81EE94E0215080409040E1F700C0EA
:100C70000000B7DFFF91EF91BF91AF919F918F91EE
:100C80007F916F915F914F913F912F910F900FBE88
:100C90000F901F901895CF93DF9378DC86E092E059
:100CA0009FD2D0E0AED2892BE9F357D2C82F80ED86
:100CB0008C0F8A3040F48C2F70D2ED2FF0E0EB587F
:100CC000FE4FC083DF5FC830A1F0CF3721F411C0E1
:100CD0008C2F63D2D150CD3011F0DA3018F3ED2FD4
:100CE000F0E0EB58FE4F108260DC85E791E040D4E5
:100CF00003C0DD23B9F2ECCFDF91CF910895C09A04
:100D000086B1806C86B981E0809373018091730114
:100D10008111FCCF86B18F7386B9C09876DC45DC33
:100D2000089580918F01803C3CF080918F01813447
:100D30002CF480918F0103C080EC01C080E480938B
:100D40008F0180916D01803C3CF080916D01813478
:100D50002CF480916D0103C080EC01C080E480938D
:100D60006D0108956091740170E08CEF91E00EDCEC
:100D700060916C0170E080EF91E008DC60918D0182
:100D800070918E018AEE91E001DC609168017091B2
:100D9000690184EE91E0FADB60918A0170918B0128
:100DA0008EED91E0F3DB45E050E065E871E083ED26
:100DB00091E003DC45E050E060E871E088EC91E010
:100DC000FCDBF3DB0895C9D10D978B36910508F054
:100DD000CCC08D5E9F4F8F939F93089580918F011C
:100DE0008A5E80938F0180916D01865180936D01A1
:100DF00098DF13DC089580918F01865180938F01D5
:100E000080916D018A5E80936D018BDF06DC089511
:100E100080918F018A5E80938F0180916D018A5E3F
:100E200080936D017EDFF9DB089580918F018651FB
:100E300080938F0180916D01865180936D0171DFE8
:100E4000ECDB089581EC91E0CBD110928F011092F0
:100E50006D01E3DB08958BED95E09BBD8ABD0895A0
:100E600083EE9CE09BBD8ABD08958BEE93E19BBD14
:100E70008ABD089575DABC018BEB91E087DB95DBC9
:100E800008953DDF0895ADDE08956091740170E02E
:100E900081EB91E000DF80937401682F81E190E0A5
:100EA000E5D3089560916C0170E087EA91E0F3DE8C
:100EB00080936C01682F80E190E0D8D308951FDF04
:100EC00085E0E0E9F1E0A0E8B1E001900D928A95BB
:100ED000E1F745E050E066E070E080E891E0BDD3E6
:100EE00008950DDF85E0E0E9F1E0A5E8B1E00190CB
:100EF0000D928A95E1F745E050E06BE070E085E8FF
:100F000091E0ABD3089560918D0170918E0183EAD9
:100F100091E0C1DE90938E0180938D01BC0184E04D
:100F200090E0B1D3089560918A0170918B018FE9AF
:100F300091E0B1DE90938B0180938A01BC0182E045
:100F400090E0A1D3089560916801709169018BE9E7
:100F500091E0A1DE9093690180936801BC0180E07B
:100F600090E091D30895FEDE08958BE491E038D1AE
:100F7000089587E690E0DBD080E687B98FE286B9F6
:100F800085B5816085BD89B7806489BF81B3806F75
:100F900081BB82B38F7082BBB99A8FB582688FBDD7
:100FA0008EB58A618EBD8FE39CE997BD86BD83EEC9
:100FB0009CE09BBD8ABDA59A929A89B7816089BF42
:100FC00085B78C6085BF8BB780688BBF87B3856022
:100FD00087BB81E190E034D38093740180E190E09D
:100FE0002FD380936C0145E050E066E070E080E82C
:100FF00091E016D345E050E06BE070E085E891E0C9
:101000000FD384E090E024D390938E0180938D01E0
:1010100082E090E01DD390938B0180938A0180E061
:1010200090E016D39093690180936801789483E0EF
:1010300091E0D6D097DE8CEF90E0D2D080917F0106
:10104000882361F010927F012FEF83ED90E3215010
:1010500080409040E1F700C000000AC080918C0100
:10106000813019F0823019F003C012DB01C029DC95
:10107000C8D0892B19F3A7DEE1CF1F920F920FB6CC
:101080000F9211242F933F934F935F938F939F93CE
:10109000EF93FF932BB13CB128718091650090E0F4
:1010A00001968F7799274091640050E08417950747
:1010B00039F080936500FC01E859FF4F308301C08F
:1010C00022E020936300FF91EF919F918F915F91B8
:1010D0004F913F912F910F900FBE0F901F90189539
:1010E0001F920F920FB60F9211248F939F93EF933D
:1010F000FF939091670080916600981771F080913E
:10110000660090E001968F77992780936600FC0136
:10111000E851FF4F80818CB901C05598FF91EF9144
:101120009F918F910F900FBE0F901F901895F8947C
:101130001092670010926600109265001092640091
:10114000789499231CF422E02BB99F7790BD89B93C
:1011500088E98AB986E880BD0895F8949091650081
:1011600080916400981304C0789480E091E0089521
:1011700078948091640090E001968F77992780930E
:101180006400FC01E859FF4F20818091630090E0EA
:10119000982F8827820F911D08954091670050E095
:1011A0004F5F5F4F4F7755272091660030E0421721
:1011B0005307D1F3FA01E851FF4F80834093670052
:1011C000559A0895CF93DF93EC018881882329F005
:1011D0002196E3DF89918111FCCFDF91CF910895B2
:1011E000CF93DF93EC012196FC018491882331F0A9
:1011F000D4DFFE01849121968111FACFDF91CF9146
:101200000895F8948091650020916400789490E0AE
:1012100080589F4F821B91098F77992708955058C6
:10122000BB27AA270ED0E0C0D1D030F0D6D020F016
:1012300031F49F3F11F41EF4C6C00EF4E095E7FBB5
:10124000BCC0E92FE2D080F3BA17620773078407A6
:10125000950718F071F49EF5FAC00EF4E0950B2E88
:10126000BA2FA02D0B01B90190010C01CA01A001F8
:101270001124FF27591B99F0593F50F4503E68F153
:101280001A16F040A22F232F342F4427585FF3CF94
:10129000469537952795A795F0405395C9F77EF465
:1012A0001F16BA0B620B730B840BBAF09150A1F0AE
:1012B000FF0FBB1F661F771F881FC2F70EC0BA0F34
:1012C000621F731F841F48F4879577956795B795BC
:1012D000F7959E3F08F0B3CF9395880F08F09927B4
:1012E000EE0F97958795089598D088F09F5790F0C6
:1012F000B92F9927B751A0F0D1F0660F771F881F3B
:10130000991F1AF0BA95C9F712C0B13081F09FD079
:10131000B1E008959CC0672F782F8827B85F39F017
:10132000B93FCCF3869577956795B395D9F73EF499
:1013300090958095709561957F4F8F4F9F4F089541
:10134000E89409C097FB3EF490958095709561955F
:101350007F4F8F4F9F4F9923A9F0F92F96E9BB2715
:101360009395F695879577956795B795F111F8CF91
:10137000FAF4BB0F11F460FF1BC06F5F7F4F8F4FFC
:101380009F4F16C0882311F096E911C0772321F0F2
:101390009EE8872F762F05C0662371F096E8862F8A
:1013A00070E060E02AF09A95660F771F881FDAF7E1
:1013B000880F9695879597F9089597F99F6780E824
:1013C00070E060E008959FEF80EC089500240A9497
:1013D0001616170618060906089500240A94121610
:1013E0001306140605060895092E0394000C11F443
:1013F000882352F0BB0F40F4BF2B11F460FF04C0F0
:101400006F5F7F4F8F4F9F4F089557FD9058440F48
:10141000551F59F05F3F71F04795880F97FB991F53
:1014200061F09F3F79F08795089512161306140610
:10143000551FF2CF4695F1DF08C01616170618069D
:10144000991FF1CF86957105610508940895E89478
:10145000BB2766277727CB0197F90895DB018F9388
:101460009F935CD0BF91AF91A29F800D911DA39FD0
:10147000900DB29F900D1124089597FB072E16F43E
:10148000009406D077FD08D053D007FC05D03EF479
:10149000909581959F4F0895709561957F4F089520
:1014A000A1E21A2EAA1BBB1BFD010DC0AA1FBB1F68
:1014B000EE1FFF1FA217B307E407F50720F0A21BDA
:1014C000B30BE40BF50B661F771F881F991F1A9447
:1014D00069F760957095809590959B01AC01BD0171
:1014E000CF010895052E97FB16F400940FD057FDF9
:1014F00005D0D6DF07FC02D046F408C050954095D1
:10150000309521953F4F4F4F5F4F089590958095AF
:10151000709561957F4F8F4F9F4F08951DD0A59F68
:10152000900DB49F900DA49F800D911D11240895DE
:10153000AA1BBB1B51E107C0AA1FBB1FA617B707F9
:1015400010F0A61BB70B881F991F5A95A9F7809515
:101550009095BC01CD010895A29FB001B39FC00139
:10156000A39F01D0B29F700D811D1124911D08957C
:10157000FC0188279927E89421912032E9F329304A
:1015800010F02E30C8F32B3239F02D3231F468943C
:1015900003C015D0820F911D219120532A30C8F32A
:1015A0001EF4909581959F4F0895BB274A3031F4E2
:1015B000992322F4BDE2909581959F4F09C07AE06E
:1015C000979F902D879F802D910D11240895BB2703
:1015D000FB015527AA27880F991FAA1FA41710F0EF
:1015E000A41B83955051B9F7A05DAA3308F0A95DFB
:1015F000A193009779F7B111B1931192CB0100C07B
:10160000DC01FC01672F71917723E1F7329704C069
:101610007C916D9370836291AE17BF07C8F30895F4
:10162000DC01CB01FC01E199FECF06C0FFBBEEBBA4
:10163000E09A31960DB20D9241505040B8F708959E
:10164000E199FECF9FBB8EBBE09A99278DB3089599
:10165000A8E1B0E042E050E0E5CFDC01CB0102C000
:101660002D9105D041505040D8F70895262FE1998B
:10167000FECF9FBB8EBB2DBB0FB6F894E29AE19ACA
:101680000FBE01960895F2DF272FF1CFF894FFCF18
:00000001FF
