:1000000081C15DC28FC18EC28DC18CC18BC18AC1BD
:1000100079C80EC287C1EBCA1DCB84C184C182C11D
:1000200081C180C17FC163C947CA46CA45CA44CAA3
:1000300043CA42CA41CA40CA3FCA3ECA3DCA3CCA74
:100040003BCA3ACA39CA38CA37CA36CA35CA55C984
:1000500061C966C931CA30CA2FCA2ECA2DCA2CCA74
:100060002BCA2ACA29CA28CA27CA26CA25CA24CA04
:1000700023CA22CA21CA20CA1FCA1ECA1DCA1CCA34
:100080001BCA1ACA19CA18CA17CA16CA15CA14CA64
:1000900013CA12CA11CA10CA0FCA0ECA0DCA0CCA94
:1000A0000BCA0ACA09CA08CAEEC8C2C955C9F8C8E3
:1000B000FBC99EC942C900CA89C9FEC977C9D4C94A
:1000C000B9C9B4C941C962C9C2C9A1C903C940C932
:1000D00050C98CC9F2C849646C650D0A001B6343A2
:1000E0006F6D70696C656420536570202033203219
:1000F0003031382031383A30383A3130207769742D
:1001000068204156522D47434320352E342E30204F
:10011000616E6420415652204C69626320322E3059
:100120002E300D0A006164635F6D617820230061E9
:1001300064635F6D696E202300574153442C7370D4
:100140006163656261722C546F67676C655F6D6F88
:1001500064652C6164635F63616C6942726174659C
:100160002C6164635F6D616E75614C2C6164635FCB
:100170004F6E63652C6B502C4B642C6B492C694E75
:1001800076657273652C0D0A70696E472C436F6C2F
:100190006C646973742C7455726E646973742C4644
:1001A000776473706565642C5265767370656564F9
:1001B0002C74694D656F75742C6551746872657324
:1001C0002C64756D705F6E562C6175746F5F746F03
:1001D00067676C452C3435360D0A00616E676C65B7
:1001E0003D00696E76657273653D000D0A6164635A
:1001F0005F6D61783D006164635F6D696E3D000D08
:100200000A4E65772076616C75653A20004C696E00
:100210006520666F6C6C6F770D0A0049646C650D24
:100220000A00436F6C6C6973696F6E2061766F6949
:10023000640D0A002C2073746174653D002C2063EA
:100240006E743D002C206176673D0040006D696E44
:100250003D002C207069643D002C206465723D00D7
:100260002C2069743D002C20706F733D006D6F74FD
:100270006F723D00666F72776172642C2000737438
:100280006F702C20006261636B776172642C2000B8
:100290006C6566742C200072696768742C20000DF0
:1002A0000A006164633D004175746F20746F676775
:1002B0006C650D0A0072657653706565643D006675
:1002C000776453706565643D007475726E4469733C
:1002D000743D00636F6C6C446973743D00657154C8
:1002E000687265733D0074696D654F75743D002CCF
:1002F000200070696E673D004B693D004B643D0016
:100300004B703D0011241FBECFE5D4E0DEBFCDBF52
:1003100021E0A0E6B0E001C01D92A03AB207E1F7EB
:10032000D3D848CB6DCE1F920F920FB60F921124E7
:100330008F93EF93FF9380916D008823A1F08091BC
:100340006600882381F0E0916500E11107C085B166
:1003500080939F0181E0809365001FC0F0E085B12C
:10036000E656FE4F8083809165008F5F853018F4DC
:100370008093650012C01092650080916D00882303
:1003800041F080916600811104C081E08093660095
:1003900004C010926D001092660080916500805A32
:1003A00087B9FF91EF918F910F900FBE0F901F9023
:1003B000189585B7816085BF8BB780648BBF10921D
:1003C00075011092790110927A0110927B011092BE
:1003D0007C01AD9885E18A95F1F70000AD9A85E33F
:1003E0008A95F1F70000AD98829B05C0809163006B
:1003F000909164000895809175018823E1F385B799
:100400008E7F85BF8BB78F7B8BBF60917901709199
:100410007A0180917B0190917C012CEA33E040E0ED
:1004200050E0DED9C9013093640020936300089541
:100430001F920F920FB60F9211242F938F939F93B9
:10044000AF93BF938091790190917A01A0917B0144
:10045000B0917C0181509F4FAF4FBF4F8093790186
:1004600090937A01A0937B01B0937C0181399D44E4
:10047000A440B105D0F013BE22B7809179019091CC
:100480007A01A0917B01B0917C01820F911DA11D89
:10049000B11D8093790190937A01A0937B01B09371
:1004A0007C0112BE81E080937501BF91AF919F9155
:1004B0008F912F910F900FBE0F901F9018951F9244
:1004C0000F920FB60F9211242F938F939F93AF9398
:1004D000BF93829B03C081E083BF1AC013BE22B7C3
:1004E0008091790190917A01A0917B01B0917C017A
:1004F000820F911DA11DB11D8093790190937A0106
:10050000A0937B01B0937C0112BE81E080937501C2
:10051000BF91AF919F918F912F910F900FBE0F9030
:100520001F9018951F920F920FB60F9211242F93C0
:100530003F938F939F9380916200803409F043C072
:100540001092620080916B008823F9F08091610025
:1005500090919A01891724F48F5F8093610005C000
:1005600098171CF4815080936100809160009091F5
:100570007801891724F48F5F809360000EC098176C
:1005800064F481508093600008C080919A01809348
:1005900061008091780180936000809161008823E0
:1005A0001CF49498959A04C0181614F49598949A8B
:1005B0008091600088231CF49798969A04C01816BE
:1005C00014F49698979A2091620030E0809161002F
:1005D000082E000C990B99231CF491958195910993
:1005E0002817390719F482B38F7C82BB20916200EF
:1005F00030E080916000082E000C990B99231CF4C8
:100600009195819591092817390719F482B38F7351
:1006100082BB809162008F5F809362009F918F9177
:100620003F912F910F900FBE0F901F901895CF9371
:10063000DF93EB018FD84AE06EE771E0CE014ED92F
:100640008EE791E079D8DF91CF9108958FE992E01C
:1006500081D808958FEE92E07DD80895EF92FF92B1
:100660000F931F93CF93DF93E62EF72EEA0172D8F4
:1006700021970E2D1F2D0FC0F80181918F014AE0A7
:100680006EE771E090E03CD98EE791E055D8209775
:1006900009F0E0DF2197CF3FFFEFDF0769F7DF9138
:1006A000CF911F910F91FF90EF90089545E050E09A
:1006B0006BE971E082EA92E0D1DF089580919A01BE
:1006C00090917801891724F487E992E043D819C002
:1006D000981724F480E992E03DD813C0882334F4BD
:1006E000992324F485E892E035D80BC0811106C027
:1006F000911104C08EE792E02DD803C084E792E008
:1007000029D860919A01062E000C770B8DE692E0B5
:100710008EDF60917801062E000C770B8FEE92E051
:1007200086DF94DF0895CF93DF93D0916A00C4E60B
:1007300008C08FE39CE90197F1F700C00000C150A9
:1007400039F019D8892B21F480916A00D81789F3E0
:10075000DF91CF91089580916A00813021F098F067
:10076000823041F0089582E080936A0082E292E054
:10077000F1D7089510926A008BE192E0EBD7809157
:100780006900882331F081E080936A008DE092E077
:10079000E1D7089510929A011092780183EE9CE0BF
:1007A0009BBD8ABD88B38A7F88BB08952F923F92F4
:1007B0004F925F926F927F928F929F92AF92BF9271
:1007C000CF92DF92EF92FF920F931F93CF93DF931D
:1007D000CDB7DEB728970FB6F894DEBF0FBECDBFFA
:1007E000939A86B1806C86B9C09A9DDF1A8219826D
:1007F0001E821D82212C332433943C822B82F5C02F
:1008000021E020936D0080916D008111FCCF30902C
:1008100095010F2EF8E86F2EF1E07F2EF02D0F2EB0
:10082000FDE84F2EF1E05F2EF02D6894CC24C7F840
:10083000DD24DA94ED2CFD2CE0E0F0E0812C912C0D
:10084000540100E010E0DF01A556BE4F8C91D301AA
:100850006D913D0170E090E0681779070CF4CB01D1
:10086000D2012D912D0130E0821793070CF4C901BC
:10087000821B930B982F621B730B80E09ED77887A7
:100880006F83332031F08B819C81861B970B988777
:100890008F83AF81B885A7019601ECD7860E971E8E
:1008A000A81EB91E0A0F1B1F319690E4C90ED11C59
:1008B000E11CF11CE530F10531F60115110551F08F
:1008C000C501B4019801012E000C440B550BAAD7A9
:1008D000790102C0E12CF12C6701AD81BE81CA1AF9
:1008E000DB0A69817A816E0D7F1D7A83698380912D
:1008F000980190919901E89E9001E99E300DF89E33
:10090000300D11244091730150917401649FC00116
:10091000659F900D749F900D1124820F931F40913D
:10092000930150919401C49E9001C59E300DD49EB8
:10093000300D1124820F931F64E670E03ED76138BA
:10094000710514F060E870E07E836D8360387F4F3E
:1009500024F490E89D83AFEFAE83A8DEB70186E66E
:1009600092E065DE69817A8180E692E060DEB60120
:1009700089E592E05CDE6D817E8182E592E057DE62
:1009800069DE6D817E8177233CF4605C60939A011F
:1009900070E47093780107C080E480939A019D8190
:1009A000891B809378010115110519F00115154077
:1009B00079F480916900882311F0CDDE0AC010928D
:1009C0009A011092780188B3B1E08B2788BB01C0EF
:1009D000C09A74DE2FEF61EE74E0215060407040E9
:1009E000E1F700C00000FE82ED82C5D6892B29F414
:1009F00080916A00813009F403CFCCDE86B18F7319
:100A000086B9939828960FB6F894DEBF0FBECDBF77
:100A1000DF91CF911F910F91FF90EF90DF90CF90DA
:100A2000BF90AF909F908F907F906F905F904F900E
:100A30003F902F9008952F923F924F925F926F9226
:100A40007F928F929F92AF92BF92CF92DF92EF925E
:100A5000FF920F931F93CF93DF93CDB7DEB76F97BE
:100A60000FB6F894DEBF0FBECDBFFE01319686E112
:100A7000DF011D928A95E9F781E080936B00C29AAD
:100A800080916900882321F0939A86B1806C86B9A1
:100A90004ADE198E0F2EF7E05F2EF02D0F2EF3E0B9
:100AA0006F2EF02D0F2EF5E04F2EF02D1A8E1F8A8F
:100AB0001D8E1C8E1B8E1F8E1E8EDAC17ADCE42DDD
:100AC000F0E0EE0FFF1F21E030E02C0F3D1FE20FA2
:100AD000F31F918380833F89363039F04D8D41116A
:100AE00002C081E001C08FEF480EA8E6B1E04A9E47
:100AF000C0014B9E900D112485529A4F9BBD8ABD1B
:100B0000451420F4641420F01D8E02C0B1E0BD8FA6
:100B100082EF92E01FD6FE0131967F0110E000E0E7
:100B2000712CF5E0F88F0F2EFCE2CF2EF02DDD2496
:100B3000D394A12CB12C812C912C0F2EFCE22F2EC2
:100B4000F02D33243394161510F0511630F4D701DC
:100B50001D921C9280E090E021C0F701808191817C
:100B60009C01215031092B323140C0F4153020F462
:100B7000A80EB91E0F5F05C0163018F0880E991E1A
:100B800073948215930510F4188F1C018C159D0524
:100B900028F42DEF210F253008F46C014AE06EE7B0
:100BA00071E0AED68EE791E0C7D554DD1F5F22E03D
:100BB000E20EF11C1B3039F6002329F0602F70E0A3
:100BC000C501E7D55B01772029F0672D70E0C401EE
:100BD000E0D54B018B8D9C8DA816B90661F4AE8DC6
:100BE000BF8D8A169B0649F4BF89B23041F0EA8D69
:100BF000EF5FEA8F05C01A8E03C01A8E01C01A8EED
:100C000080916900882349F1F1E0F0936D008091B3
:100C10006D008111FCCF4ADD1DDDADE8B1E0E8E8F3
:100C2000F1E080E090E0AD019C0125563E4FD901F6
:100C30003C91DA012D91AD01321750F09C012556FF
:100C40003E4FD9013C912081321710F484DD05C05C
:100C5000019631968530910539F7B1018DE492E026
:100C6000E6DCB88D6B2F70E08BE492E0E0DCB6013F
:100C70008FEE92E0DCDCB50184E492E0D8DCB401D4
:100C80008FEE92E0D4DCEA8D6E2F70E08DE392E07F
:100C9000CEDCF98D6F2F70E08FEE92E0C8DC2F89EB
:100CA000622F70E084E392E0C2DCD4DC07DD8F8940
:100CB0008150823008F48FC03F89363009F4A0C0DB
:100CC00080917D0190E0C816D906D8F4498D4F5F18
:100CD000498F353009F4A3C08A149B0448F48091ED
:100CE000920180939A011092780185E08F8B97C0D2
:100CF00010929A01809192018093780195E09F8BE8
:100D00008EC02091770130E0C216D30620F028165D
:100D1000390608F03FC0A98DAF5FA98FBF89B330F6
:100D200049F58A149B0448F48091920180939A01BA
:100D3000809197018093780108C0809197018093FA
:100D40009A018091920180937801E88DE23028F039
:100D50008E2FE93018F088E001C082E00F2EFEEF00
:100D60006F2EF02D680E6894552451F8580EF4E05B
:100D7000FF8B55C02F89243009F451C010929A017D
:100D8000109278010F2EFAE05F2EF02D612C31E0E9
:100D90003F8B45C04F89453069F410929A011092FB
:100DA0007801198E0F2EFAE05F2EF02D612C81E074
:100DB0008F8B35C08091970180939A018093780141
:100DC000198E0F2EF7E05F2EF02D0F2EF3E06F2E11
:100DD000F02D1F8A24C09F89923029F44614B9F05F
:100DE00045101DC017C0AF89A13039F44614A9F0D1
:100DF000451015C0B2E0BF8B12C0EF89E63079F420
:100E000088B3F4E08F2788BB26E02F8B08C033E03F
:100E10003F8B05C043E04F8B02C082E08F8B8091F7
:100E20007601998D981728F480919601AA8DA817BC
:100E300090F010929A01109278010F2EF5E05F2E3B
:100E4000F02D0F2EF5E06F2EF02D0F2EF5E04F2E2A
:100E5000F02DB6E0BF8BEFEFF1EE24E0E150F04073
:100E60002040E1F700C00000BC8EAB8E9F8E8E8EBE
:100E700082D4892B29F480916A00823009F41ECE35
:100E800089DC10926B0080916900882321F093988F
:100E900086B18F7386B96F960FB6F894DEBF0FBE1A
:100EA000CDBFDF91CF911F910F91FF90EF90DF9019
:100EB000CF90BF90AF909F908F907F906F905F90FA
:100EC0004F903F902F90089580919501882311F0C5
:100ED000C49A0895C4980895CF93DF93A8DB8FEF49
:100EE00091E038D4D0E047D4892BE9F3F0D3C82F70
:100EF0008D3221F080ED8C0F8A3040F48C2F07D496
:100F0000ED2FF0E0E258FE4FC083DF5FC830A1F064
:100F1000CF3721F411C08C2FFAD3D150CD3011F03E
:100F2000DA3008F3ED2FF0E0E258FE4F10828EDB4E
:100F30008EE791E0AFD403C0DD23A9F2ECCFDF91BF
:100F4000CF910895939A86B1806C86B981E08093A1
:100F50006D0080916D008111FCCF86B18F7386B9D1
:100F60009398089545E050E06DE871E086EF91E0D8
:100F700075DB45E050E068E871E08BEE91E06EDBF8
:100F800065DB089545E050E067E070E088E891E0B7
:100F9000F8D445E050E06CE070E08DE891E0F1D4E9
:100FA0000895AF92BF92CF92DF92EF92FF920F938C
:100FB0001F93CF93DF9310926C0085E0E8E8F1E097
:100FC000DF011D928A95E9F745E050E064EB70E09F
:100FD0008DE891E07CD40F2EF2E3EF2EF02D689493
:100FE000FF24F4F888B38F2588BBACDF0F2EF8E818
:100FF000CF2EF1E0DF2EF02D6DE871E0DB01F60180
:1010000080E090E0AC015D012C918C0105561E4FF3
:10101000E8013881231708F02881E501288311961B
:101020005F0120818A0105561E4FE8013881321781
:1010300008F02881E50128833196019685309105D5
:1010400009F7DFEF21EE84E0D15020408040E1F746
:1010500000C00000EA94E110C5CF42E951E0F6017A
:10106000DB01208130E08C91281B3109C9019923D3
:101070000CF4039695958795959587958C936F5F5E
:101080007F4F982F990F890F80839FEFC91AD90A34
:101090006417750721F776DF65DF16DFDF91CF91E3
:1010A0001F910F91FF90EF90DF90CF90BF90AF9086
:1010B000089580919A0181340CF080E4803C0CF416
:1010C00080EC80939A018091780181340CF080E467
:1010D000803C0CF480EC8093780108956091950138
:1010E00070E082EE91E0A3DA089560919501609539
:1010F00061706093950186E090E04CD4E5DEEEDF10
:10110000A5DA08951F920F920FB60F9211242F9314
:101110003F934F935F936F937F938F939F93AF937F
:10112000BF93EF93FF93B39906C0809168008F5FE0
:101130008093680012C080916800853060F082332F
:1011400038F081E08093690087EA92E003D302C01F
:101150001092690000DB10926800B59906C080917A
:1011600067008F5F8093670011C0809167008530B2
:1011700058F0823340F080916A00811105C081E00F
:1011800080936C0001C0B1DF10926700FF91EF9176
:10119000BF91AF919F918F917F916F915F914F918F
:1011A0003F912F910F900FBE0F901F901895609157
:1011B0007D0170E083ED92E03ADA4CDA60917701DC
:1011C00070E089EC92E033DA45DA6091760170E004
:1011D00086EE92E02CDA3ADA60919701062E000C46
:1011E000770B8FEB92E023DA35DA60919201062ECD
:1011F000000C770B85EB92E01ADA2CDA60919601FD
:1012000070E08DED92E013DA21DA6091980170912F
:10121000990180E093E00BDA1DDA6091730170911F
:10122000740188EF92E003DA15DA6091930170910E
:1012300094018CEF92E0FBD90DDA50DF07DA92DEF1
:1012400008952AB53BB52B5D3540ADECBCEC06D31B
:10125000BC01729562956F7067277F7067278BED71
:1012600091E0E5D9F3D908950F931F93CF93DF93BE
:101270002ED280978835910508F01EC18D5E9F4F54
:101280008F939F93089580919A018A5E80939A012B
:10129000809178018651809378010BDF0FDA0FC1BE
:1012A00080919A01865180939A01809178018A5E9B
:1012B00080937801FEDE02DA02C180919A018A5E93
:1012C00080939A01809178018A5E80937801F1DEA3
:1012D000F5D9F5C080919A01865180939A01809149
:1012E0007801865180937801E4DEE8D9E8C0109255
:1012F0009A0110927801E2D9E2C08AB59BB58B3E83
:10130000934130F48AB59BB588599E4F9BBD8ABDE9
:1013100098DFD5C083EE9CE09BBD8ABD92DFCFC035
:101320008AB59BB58C3D954030F08AB59BB5885603
:1013300091409BBD8ABD85DFC2C03BD8BC0182EF16
:1013400092E075D983D9BBC0FDDDB0D97FD9B7C0D4
:101350001092690000DAB3C060917D0170E083ED06
:1013600092E0BADD80937D01682F86E190E012D390
:10137000A6C06091770170E089EC92E0ADDD8093CA
:101380007701682F85E190E005D399C060919801BD
:101390007091990180E093E09FDD90939901809393
:1013A0009801BC0184E090E002D389C06091930170
:1013B000709194018CEF92E08FDD90939401809373
:1013C0009301BC0182E090E0F2D279C06091730198
:1013D0007091740188EF92E07FDD909374018093A7
:1013E0007301BC0180E090E0E2D269C0E0DE67C03A
:1013F00060919701062E000C770B8FEB92E06CDD6D
:1014000080939701682F84E190E0C4D258C0609126
:101410009201062E000C770B85EB92E05DDD809348
:101420009201682F83E190E0B5D249C05EDE47C0EB
:10143000B8DD45C06091760170E086EE92E04CDD4B
:1014400080937601682F82E190E0A4D238C0609149
:10145000960170E08DED92E03FDD80939601682F5C
:1014600081E190E097D22BC00DE811E0C0E0D0E020
:10147000BE018FE291E030DDF80181938F0121966A
:10148000C530D105A9F708E811E0C0E0D0E0BE0101
:1014900085E291E021DDF80181938F012196C5302D
:1014A000D105A9F76FDD0BC081E08093690087EA61
:1014B00092E050D150D903C089E391E04BD1DF9144
:1014C000CF911F910F91089587E690E0EAD080E6D2
:1014D00087B98FE286B985B58A6085BD89B780688E
:1014E00089BF8FE183BD81B3806F81BBB99A8FB50E
:1014F00082688FBD8EB58A618EBD8FE39CE997BDF2
:1015000086BD83EE9CE09BBD8ABDA59A929A89B761
:10151000816089BF8B9A87B3856187BB88B38862F6
:1015200088BB89B7846089BF86E190E022D280932E
:101530007D0185E190E01DD28093770184E190E008
:1015400018D28093970183E190E013D280939201A7
:1015500082E190E00ED28093760181E190E009D2A1
:101560008093960145E050E067E070E088E891E004
:10157000F0D145E050E06CE070E08DE891E0E9D119
:1015800086E090E0F6D18093950142E050E064E07F
:1015900070E088E991E0DDD142E050E062E070E087
:1015A00083E991E0D6D142E050E060E070E083E76B
:1015B00091E0CFD189DC78948DED90E0CBD0F7DD50
:1015C00086ED90E0C7D080916A00813019F08230BA
:1015D00019F003C0EBD801C02EDACDD0892B09F069
:1015E00043DE80916C00882371F3DBDCECCF1F922B
:1015F0000F920FB60F9211242F933F934F935F9347
:101600008F939F93EF93FF932BB13CB128718091FF
:10161000700090E001968F77992740916F0050E01D
:101620008417950739F080937000FC01ED58FF4F47
:10163000308301C022E020936E00FF91EF919F91D3
:101640008F915F914F913F912F910F900FBE0F900F
:101650001F9018951F920F920FB60F9211248F931F
:101660009F93EF93FF939091720080917100981770
:1016700071F08091710090E001968F7799278093A7
:101680007100FC01ED50FF4F80818CB901C055986D
:10169000FF91EF919F918F910F900FBE0F901F9030
:1016A0001895F894109272001092710010927000C8
:1016B00010926F00789499231CF422E02BB99F7745
:1016C00090BD89B988E98AB986E880BD0895F89403
:1016D0009091700080916F00981304C0789480E01E
:1016E00091E00895789480916F0090E001968F7753
:1016F000992780936F00FC01ED58FF4F2081809166
:101700006E0090E0982F8827820F911D08954091D8
:10171000720050E04F5F5F4F4F7755272091710067
:1017200030E042175307D1F3FA01ED50FF4F8083A9
:1017300040937200559A0895CF93DF93EC0188810E
:10174000882329F02196E3DF89918111FCCFDF9175
:10175000CF910895CF93DF93EC012196FC01849102
:10176000882331F0D4DFFE01849121968111FACFD4
:10177000DF91CF910895F8948091700020916F00CF
:10178000789490E080589F4F821B91098F7799271A
:101790000895AA1BBB1B51E107C0AA1FBB1FA617B8
:1017A000B70710F0A61BB70B881F991F5A95A9F70A
:1017B00080959095BC01CD01089597FB072E16F4F6
:1017C000009406D077FD08D0E4DF07FC05D03EF496
:1017D000909581959F4F0895709561957F4F0895DD
:1017E000A1E21A2EAA1BBB1BFD010DC0AA1FBB1F25
:1017F000EE1FFF1FA217B307E407F50720F0A21B97
:10180000B30BE40BF50B661F771F881F991F1A9403
:1018100069F760957095809590959B01AC01BD012D
:10182000CF010895052E97FB16F400940FD057FDB5
:1018300005D0D6DF07FC02D046F408C0509540958D
:10184000309521953F4F4F4F5F4F0895909580956C
:10185000709561957F4F8F4F9F4F0895A29FB00164
:10186000B39FC001A39F01D0B29F700D811D1124B1
:10187000911D0895B7FF04C003D0821B930B0895F8
:10188000EDDFA59F900DB49F900DA49F800D911D3D
:1018900011240895FC0188279927E894219120328A
:1018A000E9F3293010F02E30C8F32B3239F02D3205
:1018B00031F4689403C01CD0820F911D21912053F4
:1018C0002A30C8F31EF4909581959F4F0895DC014E
:1018D00001C06D9341505040E0F70895BB274A3056
:1018E00031F4992322F4BDE2909581959F4F09C070
:1018F0007AE0979F902D879F802D910D1124089558
:10190000BB27FB015527AA27880F991FAA1FA417D9
:1019100010F0A41B83955051B9F7A05DAA3308F0CD
:10192000A95DA193009779F7B111B1931192CB0101
:1019300000C0DC01FC01672F71917723E1F732973A
:1019400004C07C916D9370836291AE17BF07C8F39A
:101950000895DC01CB01FC01E199FECF06C0FFBB7D
:10196000EEBBE09A31960DB20D9241505040B8F75F
:101970000895E199FECF9FBB8EBBE09A99278DB366
:101980000895DC01CB0102C02D9105D0415050409B
:10199000D8F70895262FE199FECF9FBB8EBB2DBBB4
:1019A0000FB6F894E29AE19A0FBE01960895F2DF1D
:0819B000272FF1CFF894FFCFBF
:00000001FF
