:10000000ADC189C2BBC1BAC2B9C1B8C1B7C1B6C15D
:10001000FDC63AC2B3C147CA79CAB0C1B0C1AEC108
:10002000ADC1ACC1ABC19FC892C991C990C98FC9BC
:100030008EC98DC98CC98BC98AC989C988C987C924
:1000400086C985C984C983C982C981C980C991C843
:10005000ABC8AFC87CC97BC97AC979C978C977C927
:1000600076C975C974C973C972C971C970C96FC9B4
:100070006EC96DC96CC96BC96AC969C968C967C9E4
:1000800066C965C964C963C962C961C960C95FC914
:100090005EC95DC95CC95BC95AC959C958C957C944
:1000A00056C955C954C953C92AC842C9AAC834C86F
:1000B00030C9F3C899C80FC9DEC849C9CCC81AC924
:1000C00039C934C998C8B7C842C9F6C83FC897C823
:1000D000A5C8E1C82EC849646C650D0A001B6343BE
:1000E0006F6D70696C65642041756720323620320F
:1000F0003031382031363A33383A31362077697426
:1001000068204156522D47434320352E342E30204F
:10011000616E6420415652204C69626320322E3059
:100120002E300D0A00574153442C73706163656291
:1001300061722C546F67676C655F6D6F64652C61CD
:1001400064635F63616C6942726174652C70696E8F
:10015000472C6164635F4F6E63652C6B502C4B645E
:100160002C6B492C694E76657273652C436F6C6CF1
:10017000646973742C7455726E646973742C467759
:100180006473706565642C52657673706565642C64
:100190007475726E737064482C7475726E737064CB
:1001A0004C2C724574656E74696F6E2C74694D6564
:1001B0006F75742C64756D705F6E562C3435360D0A
:1001C0000A0074696D654F75743D00726574656EE3
:1001D00074696F6E3D007475726E5370644C3D00AF
:1001E0007475726E537064483D0072657653706525
:1001F00065643D0066776453706565643D004B69D6
:100200003D004B643D004B703D007475726E446957
:1002100073743D00636F6C6C446973743D00706966
:100220006E673D002C20696E76657273653D002C0B
:10023000204B643D002C204B693D000D0A4B703D66
:10024000002C20002C207475726E53706565643D1F
:10025000002C2072657653706565643D000D0A665A
:10026000776453706565643D002C2074696D654F3B
:1002700075743D002C20726574656E74696F6E3DF7
:10028000002C207475726E446973743D00636F6C4A
:100290006C446973743D000D0A6164635F6D61783D
:1002A0003D006164635F6D696E3D000D0A4E6577C8
:1002B0002076616C75653A20004C696E6520666F2A
:1002C0006C6C6F770D0A0049646C650D0A00436F12
:1002D0006C6C6973696F6E2061766F69640D0A00DA
:1002E0002C2073746174653D002C20002C206176F5
:1002F000673D0040006D696E3D0070696E673D00AE
:100300002C207069643D002C206465723D002C2017
:1003100069743D002C20706F733D002C20006D6FC0
:10032000746F723D00666F72776172642C20007387
:10033000746F702C20006261636B776172642C2093
:10034000006C6566742C200072696768742C20004C
:100350002C20000D0A006164633D000011241FBEC3
:10036000CFE5D4E0DEBFCDBF21E0A0E6B0E001C024
:100370001D92A13AB207E1F7EED7C8CB41CE1F924A
:100380000F920FB60F9211248F93EF93FF938091EA
:100390006C008823A1F080916600882381F0E091B1
:1003A0006500E11107C085B18093A00181E08093D1
:1003B00065001FC0F0E085B1E556FE4F8083809157
:1003C00065008F5F853018F48093650012C010922D
:1003D000650080916C00882341F080916600811156
:1003E00004C081E08093660004C010926C001092FB
:1003F000660080916500805A87B9FF91EF918F91D7
:100400000F900FBE0F901F90189585B7816085BF24
:100410008BB780648BBF1092750110927A01109295
:100420007B0110927C0110927D01AD9885E18A9547
:10043000F1F70000AD9A85E38A95F1F70000AD98D9
:10044000829B05C080916300909164000895809123
:1004500075018823E1F385B78E7F85BF8BB78F7BCE
:100460008BBF60917A0170917B0180917C019091AA
:100470007D012CEA33E040E050E059DAC9013093C5
:1004800064002093630008951F920F920FB60F929D
:1004900011242F938F939F93AF93BF9380917A01F1
:1004A00090917B01A0917C01B0917D0181509F4F83
:1004B000AF4FBF4F80937A0190937B01A0937C0153
:1004C000B0937D0181399D44A440B105D0F013BEA5
:1004D00022B780917A0190917B01A0917C01B0912B
:1004E0007D01820F911DA11DB11D80937A01909312
:1004F0007B01A0937C01B0937D0112BE81E08093CB
:100500007501BF91AF919F918F912F910F900FBE69
:100510000F901F9018951F920F920FB60F921124F3
:100520002F938F939F93AF93BF93829B03C081E0E0
:1005300083BF1AC013BE22B780917A0190917B01CC
:10054000A0917C01B0917D01820F911DA11DB11D73
:1005500080937A0190937B01A0937C01B0937D01FD
:1005600012BE81E080937501BF91AF919F918F91F1
:100570002F910F900FBE0F901F9018951F920F9202
:100580000FB60F9211242F933F938F939F938091D7
:100590006200803409F043C01092620080916A00CA
:1005A0008823F9F08091610090919B01891724F4D0
:1005B0008F5F8093610005C098171CF48150809371
:1005C00061008091600090917901891724F48F5F18
:1005D000809360000EC0981764F48150809360008F
:1005E00008C080919B018093610080917901809384
:1005F00060008091610088231CF49498959A04C04F
:10060000181614F49598949A8091600088231CF42D
:100610009798969A04C0181614F49698979A209171
:10062000620030E080916100082E000C990B992344
:100630001CF49195819591092817390719F482B313
:100640008F7C82BB2091620030E080916000082E98
:10065000000C990B99231CF4919581959109281709
:10066000390719F482B38F7382BB809162008F5F68
:10067000809362009F918F913F912F910F900FBEB9
:100680000F901F901895CF93DF93EB01BFD74AE0EF
:1006900060E871E0CE01C9D980E891E0A9D7DF9187
:1006A000CF91089583E593E0B1D7089580E593E075
:1006B000ADD70895EF92FF920F931F93CF93DF93DF
:1006C000E62EF72EEA01A2D721970E2D1F2D0FC07F
:1006D000F80181918F014AE060E871E090E0B7D9BC
:1006E00080E891E085D7209709F0E0DF2197CF3FA0
:1006F000FFEFDF0769F7DF91CF911F910F91FF9017
:10070000EF90089545E050E06CE971E086E593E0F4
:10071000D1DF089580919B0190917901891724F48C
:1007200088E493E073D719C0981724F481E493E028
:100730006DD713C0882334F4992324F486E393E01F
:1007400065D70BC0811106C0911104C08FE293E000
:100750005DD703C085E293E059D760919B01062ED7
:10076000000C770B8EE193E08EDF60917901062E0D
:10077000000C770B8BE193E086DF94DF08952091E6
:1007800069008FE39CE90197F1F700C0000083E660
:1007900008C0EFE3FCE93197F1F700C00000815099
:1007A00021F0909169002917A1F308952F923F92AB
:1007B0004F925F926F927F928F929F92AF92BF9271
:1007C000CF92DF92EF92FF920F931F93CF93DF931D
:1007D000CDB7DEB728970FB6F894DEBF0FBECDBFFA
:1007E000939A86B1806C86B9C09AC9DF1A82198241
:1007F0001E821D82212C332433943C822B82EFC035
:1008000021E020936C0080916C008111FCCF30902E
:1008100097010F2EFAE86F2EF1E07F2EF02D0F2EAC
:10082000FFE84F2EF1E05F2EF02D6894CC24C7F83E
:10083000DD24DA94ED2CFD2CE0E0F0E0812C912C0D
:10084000540100E010E0DF01A456BE4F8C91D301AB
:100850006D913D0170E090E0681779070CF4CB01D1
:10086000D2012D912D0130E0821793070CF4C901BC
:10087000821B930B982F621B730B80E045D87887FF
:100880006F83332031F08B819C81861B970B988777
:100890008F83AF81B885A701960187D8860E971EF2
:1008A000A81EB91E0A0F1B1F319690E4C90ED11C59
:1008B000E11CF11CE530F10531F60115110551F08F
:1008C000C501B4019801012E000C440B550B51D801
:1008D000790102C0E12CF12C6701AD81BE81CA1AF9
:1008E000DB0A69817A816E0D7F1D7A83698380912D
:1008F000990190919A01E89E9001E99E300DF89E31
:10090000300D11244091730150917401649FC00116
:10091000659F900D749F900D1124820F931F40913D
:10092000950150919601C49E9001C59E300DD49EB4
:10093000300D1124820F931F64E670E0E5D7613813
:10094000710514F060E870E07E836D8360387F4F3E
:1009500024F490E89D83AFEFAE83D4DEB70184E149
:1009600093E091DE69817A818EE093E08CDEB601BE
:1009700087E093E088DE6D817E8180E093E083DE16
:1009800095DE6D817E8177233CF4605C60939B01F2
:1009900070E47093790107C080E480939B019D818E
:1009A000891B809379010115110519F00115154076
:1009B00049F410929B011092790188B3B1E08B2722
:1009C00088BB01C0C09AA6DE2FEF61EE74E0215013
:1009D00060407040E1F700C00000FE82ED8227D643
:1009E000892B29F480916900813009F409CF86B1FF
:1009F0008F7386B9939828960FB6F894DEBF0FBE12
:100A0000CDBFDF91CF911F910F91FF90EF90DF90BD
:100A1000CF90BF90AF909F908F907F906F905F909E
:100A20004F903F902F9008952F923F924F925F9258
:100A30006F927F928F929F92AF92BF92CF92DF92EE
:100A4000EF92FF920F931F93CF93DF93CDB7DEB753
:100A50006C970FB6F894DEBF0FBECDBFFE01319686
:100A600086E1DF011D928A95E9F781E080936A00B3
:100A7000C29A85DE198E212CB7E0BB8FE3E0EC8FA4
:100A80000F2EF5E05F2EF02D612C1A8E9E012F5F48
:100A90003F4F388F2F8B312C64C1B7DCE52DF0E050
:100AA000EE0FFF1FA1E0B0E0AC0FBD1FEA0FFB1F70
:100AB00091838083B6E06B1601F1EA8DEE2379F025
:100AC0006AB57BB580E090E055D620E030E044EB9D
:100AD00053E4BBD523D67BBD6ABD5A940EC06AB51C
:100AE0007BB580E090E046D620E030E044EB53E474
:100AF000ADD514D67BBD6ABD5394F5E05F1204C03A
:100B000023EE3CE03BBD2ABD3B8D531628F44C8DB3
:100B1000451520F03A8E02C081E08A8F8AEF92E07C
:100B200075D5DE0111967D0110E000E0712C432C9B
:100B3000A12CB12C812C912C0F2EFCE2CF2EF02D6C
:100B4000DD24D394F701819191917F019C01215083
:100B500031092B32314080F4153020F4A80EB91E33
:100B60000F5F05C0163018F0880E991E73948C150F
:100B70009D0510F4412E6C014AE060E871E067D7F2
:100B800080E891E035D592DD1F5F1B30D9F6002358
:100B900029F0602F70E0C501A3D65B01772029F012
:100BA000672D70E0C4019CD64B01222049F02A94A5
:100BB000211006C0AF89B88DE6E11D92EA95E9F7EC
:100BC000B60185EF92E05FDD642D70E083EF92E087
:100BD0005ADDB5018CEE92E056DDB40189EE92E06B
:100BE00052DD662D70E080EE92E04DDD5FDD92DD3E
:100BF0008FEF860D823008F46AC0F6E06F1609F4B4
:100C00008AC080917E0190E0C816D906B0F48DEFBD
:100C1000840D853090F4298D2F5F298F35E0631680
:100C200009F485C08091940180939B0180937901A0
:100C30000F2EF5E06F2EF02D7AC08091780190E0B4
:100C4000C816D90678F5498D4F5F498F83E0681241
:100C50001BC08A149B0460F480917F0180939B01E8
:100C600080917201809379016894662462F85FC074
:100C70008091720180939B0180917F018093790123
:100C80006894662462F853C094E0691609F44FC072
:100C900030929B0130927901AAE0AB8F3C8E6624A2
:100CA000639445C0B5E06B120AC030929B0130924C
:100CB0007901EAE0EB8F3C8E662463945DC08091FD
:100CC000980180939B0180937901632C55C0F2E0D9
:100CD0006F1211C02C8D521619F03B8D531227C084
:100CE0002090760147E04B8F83E08C8F0F2EF3E04E
:100CF0006F2EF02D1CC091E069120AC0AC8D5A16FF
:100D000099F0BB8D5B1213C06894662461F80FC024
:100D1000E6E06E120CC088B3F4E08F2788BB0F2E7C
:100D2000F6E06F2EF02D03C06894662461F8809180
:100D30007701298D821760F430929B0130927901FE
:100D40000F2EF5E05F2EF02D0F2EF6E06F2EF02D1A
:100D50003FEF41EE84E0315040408040E1F700C079
:100D6000000065D4892B29F480916900823009F450
:100D700094CE10926A0002C0198EEACF6C960FB61C
:100D8000F894DEBF0FBECDBFDF91CF911F910F91C1
:100D9000FF90EF90DF90CF90BF90AF909F908F909B
:100DA0007F906F905F904F903F902F90089580912B
:100DB0006900813021F080F0823041F0089582E0B6
:100DC000809369008EEC92E021D40895109269001E
:100DD00087EC92E01BD4089581E08093690089EB51
:100DE00092E014D4089580919701882311F0C49A59
:100DF0000895C49808956091970181E068276093F1
:100E0000970186E090E072D6EEDF08951F920F9270
:100E10000FB60F9211242F933F934F935F936F93CD
:100E20007F938F939F93AF93BF93EF93FF93B39968
:100E300006C0809168008F5F8093680007C0809132
:100E40006800853008F0B3DF10926800B59906C0DD
:100E5000809167008F5F8093670011C08091670069
:100E6000853058F0823340F080916900811105C0CF
:100E700081E080936B0001C0BEDF10926700FF919C
:100E8000EF91BF91AF919F918F917F916F915F9102
:100E90004F913F912F910F900FBE0F901F9018957B
:100EA000CF93DF93F0DB8BEA92E0B0D3D0E0BFD3F7
:100EB000892BE9F368D3C82F8D3221F080ED8C0F98
:100EC0008A3040F48C2F7FD3ED2FF0E0E058FE4FB6
:100ED000C083DF5FC830A1F0CF3721F411C08C2F61
:100EE00072D3D150CD3011F0DA3008F3ED2FF0E0AD
:100EF000E058FE4F1082D6DB80E891E072D503C047
:100F0000DD23A9F2ECCFDF91CF910895939A86B1BA
:100F1000806C86B981E080936C0080916C008111B7
:100F2000FCCF86B18F7386B99398089545E050E061
:100F30006FE871E082EA92E0BDDB45E050E06AE8EC
:100F400071E087E992E0B6DBADDB0895EF92FF92A6
:100F50000F931F93CF93DF9310926B0085E0EAE825
:100F6000F1E0DF011D928A95E9F745E050E064EB7E
:100F700070E08FE891E052D512E300E188B380275A
:100F800088BBC4DFAAE8B1E0EFE8F1E080E090E0E0
:100F9000AC017F012081BC0164567E4FEB0138819A
:100FA000231708F02881E701288331967D012C91D1
:100FB000BA0164567E4FEB013881321708F0288160
:100FC000E7012883119601968530910509F7DFEF37
:100FD00021EE84E0D15020408040E1F700C00000C5
:100FE000115061F645E050E067E070E08AE891E07A
:100FF00074D545E050E06CE070E08FE891E06DD58D
:1010000095DFF1DEDF91CF911F910F91FF90EF906F
:10101000089580919B0181340CF080E4803C0CF4B5
:1010200080EC80939B018091790181340CF080E405
:10103000803C0CF480EC80937901089560917E01EE
:1010400070E08DE892E01FDB6091780170E081E84C
:1010500092E019DB6091760170E084E792E013DBA7
:101060006091770170E089E692E00DDB6091980174
:10107000062E000C770B8DE592E005DB6091940164
:10108000062E000C770B81E592E0FDDA609172018B
:10109000062E000C770B84E492E0F5DA60917F0174
:1010A000062E000C770B81E492E0EDDA6091990155
:1010B00070919A018BE392E0E6DA6091730170918E
:1010C000740185E392E0DFDA6091950170919601F9
:1010D0008FE292E0D8DA6091970170E084E292E0CA
:1010E000D2DAE0DA23DF08954ED280978835910571
:1010F00008F02DC18D5E9F4F8F939F93089580912F
:101100009B018A5E80939B01809179018651809337
:1011100079017FDFFFDA089580919B0186518093EA
:101120009B01809179018A5E8093790172DFF2DA06
:10113000089580919B018A5E80939B018091790143
:101140008A5E8093790165DFE5DA089580919B01DD
:10115000865180939B01809179018651809379011A
:1011600058DFD8DA089510929B0110927901D2DAF3
:1011700008956AB57BB580E090E0FCD220E038E5C8
:101180004FE955E4C7D288230CF0E4C06AB57BB5BB
:1011900080E090E0EFD220E030E044EB53E456D220
:1011A000BDD27BBD6ABD089583EE9CE09BBD8ABD28
:1011B00008956AB57BB580E090E0DCD220E030E6AF
:1011C0004BEB54E489D318160CF0C4C06AB57BB558
:1011D00080E090E0CFD220E030E044EB53E435D221
:1011E0009DD27BBD6ABD089510D9BC018EE192E00D
:1011F0004ADA58DA08958ADE85DA54DA0895D7DDB6
:10120000089560917E0170E084E192E049DE809370
:101210007E01682F88E190E069D40895609178019B
:1012200070E08AE092E03CDE80937801682F87E1ED
:1012300090E05CD408956091990170919A0186E0E4
:1012400092E02EDE90939A0180939901BC0184E094
:1012500090E059D40895609195017091960182E0D3
:1012600092E01EDE9093960180939501BC0182E08E
:1012700090E049D4089560917301709174018EEFEC
:1012800091E00EDE9093740180937301BC0180E0C5
:1012900090E039D40895D2DE089560919801062E29
:1012A000000C770B84EF91E0FBDD80939801682FB1
:1012B00086E190E01BD4089560919401062E000C05
:1012C000770B8AEE91E0ECDD80939401682F85E145
:1012D00090E00CD4089560917201062E000C770BFB
:1012E00080EE91E0DDDD80937201682F84E190E073
:1012F000FDD3089560917F01062E000C770B86EDDB
:1013000091E0CEDD80937F01682F83E190E0EED302
:1013100008956091760170E08BEC91E0C1DD8093DF
:101320007601682F82E190E0E1D3089564DD0895AD
:101330000DDE08956091770170E082EC91E0B0DD00
:1013400080937701682F81E190E0D0D3089585E202
:1013500091E05CD1089587E690E0FFD080E687B900
:101360008FE286B985B58A6085BD89B7806889BFF7
:101370008FE383BD81B3806F81BBB99A8FB58268DB
:101380008FBD8EB58A618EBD8FE39CE997BD86BD0A
:1013900083EE9CE09BBD8ABDA59A929A89B7816035
:1013A00089BF8B9A87B3856187BB88B3886288BB06
:1013B00089B7846089BF88E190E082D380937E0101
:1013C00087E190E07DD38093780182E190E078D34B
:1013D0008093760186E190E073D38093980185E154
:1013E00090E06ED38093940184E190E069D3809380
:1013F000720183E190E064D380937F0181E190E00A
:101400005FD38093770145E050E067E070E08AE8C1
:1014100091E046D345E050E06CE070E08FE891E069
:101420003FD386E090E04CD38093970184E090E036
:101430004FD390939A018093990182E090E048D332
:10144000909396018093950180E090E041D3909332
:10145000740180937301C7DC78948DED90E0D6D051
:10146000EDDD86ED90E0D2D0C3EEDCE010929B0182
:1014700010927901DBBDCABD88B38A7F88BB809199
:101480006900813019F0823019F003C08FD901C092
:10149000CBDACDD0892B09F027DE80916B00882331
:1014A00029F354DDE3CF1F920F920FB60F92112450
:1014B0002F933F934F935F938F939F93EF93FF935C
:1014C0002BB13CB1287180916F0090E001968F772D
:1014D000992740916E0050E08417950739F080936A
:1014E0006F00FC01EE58FF4F308301C022E02093D3
:1014F0006D00FF91EF919F918F915F914F913F917F
:101500002F910F900FBE0F901F9018951F920F9262
:101510000FB60F9211248F939F93EF93FF939091A7
:10152000710080917000981771F08091700090E0C8
:1015300001968F77992780937000FC01EE50FF4F42
:1015400080818CB901C05598FF91EF919F918F9147
:101550000F900FBE0F901F901895F8941092710085
:101560001092700010926F0010926E007894992380
:101570001CF422E02BB99F7790BD89B988E98AB91C
:1015800086E880BD0895F89490916F0080916E0078
:10159000981304C0789480E091E008957894809145
:1015A0006E0090E001968F77992780936E00FC0182
:1015B000EE58FF4F208180916D0090E0982F882792
:1015C000820F911D08954091710050E04F5F5F4F71
:1015D0004F7755272091700030E042175307D1F321
:1015E000FA01EE50FF4F808340937100559A0895A1
:1015F000CF93DF93EC018881882329F02196E3DFE4
:1016000089918111FCCFDF91CF910895CF93DF9322
:10161000EC012196FC018491882331F0D4DFFE0196
:10162000849121968111FACFDF91CF910895F8949A
:1016300080916F0020916E00789490E080589F4FC9
:10164000821B91098F77992708955058BB27AA27A5
:101650000ED008C1F9D030F0FED020F031F49F3F19
:1016600011F41EF4EEC00EF4E095E7FBE4C0E92FA0
:101670000AD180F3BA17620773078407950718F039
:1016800071F49EF522C10EF4E0950B2EBA2FA02D19
:101690000B01B90190010C01CA01A0011124FF271F
:1016A000591B99F0593F50F4503E68F11A16F0401A
:1016B000A22F232F342F4427585FF3CF4695379519
:1016C0002795A795F0405395C9F77EF41F16BA0BDE
:1016D000620B730B840BBAF09150A1F0FF0FBB1F8C
:1016E000661F771F881FC2F70EC0BA0F621F731FD5
:1016F000841F48F4879577956795B795F7959E3F32
:1017000008F0B3CF9395880F08F09927EE0F9795BF
:10171000879508956CD008F481E00895BCD088F0D6
:101720009F5790F0B92F9927B751A0F0D1F0660FCD
:10173000771F881F991F1AF0BA95C9F712C0B130E8
:1017400081F0C3D0B1E00895C0C0672F782F8827FB
:10175000B85F39F0B93FCCF3869577956795B39527
:10176000D9F73EF490958095709561957F4F8F4F96
:101770009F4F0895E89409C097FB3EF4909580959B
:10178000709561957F4F8F4F9F4F9923A9F0F92F47
:1017900096E9BB279395F695879577956795B795C5
:1017A000F111F8CFFAF4BB0F11F460FF1BC06F5FAB
:1017B0007F4F8F4F9F4F16C0882311F096E911C0BD
:1017C000772321F09EE8872F762F05C0662371F0DE
:1017D00096E8862F70E060E02AF09A95660F771FF2
:1017E000881FDAF7880F9695879597F90895990FCE
:1017F0000008550FAA0BE0E8FEEF16161706E807DB
:10180000F907C0F012161306E407F50798F0621BFB
:10181000730B840B950B39F40A2661F0232B242BD0
:10182000252B21F408950A2609F4A140A6958FEFEF
:10183000811D811D089597F99F6780E870E060E041
:1018400008959FEF80EC089500240A941616170659
:1018500018060906089500240A94121613061406A1
:1018600005060895092E0394000C11F4882352F004
:10187000BB0F40F4BF2B11F460FF04C06F5F7F4FBC
:101880008F4F9F4F089557FD9058440F551F59F0A3
:101890005F3F71F04795880F97FB991F61F09F3F5D
:1018A00079F087950895121613061406551FF2CF86
:1018B0004695F1DF08C0161617061806991FF1CFD6
:1018C00086957105610508940895E894BB276627FD
:1018D0007727CB0197F908958ADF08F48FEF0895F1
:1018E000AA1BBB1B51E107C0AA1FBB1FA617B70746
:1018F00010F0A61BB70B881F991F5A95A9F7809562
:101900009095BC01CD01089597FB072E16F4009425
:1019100006D077FD08D0E4DF07FC05D03EF49095B3
:1019200081959F4F0895709561957F4F0895A1E22D
:101930001A2EAA1BBB1BFD010DC0AA1FBB1FEE1F49
:10194000FF1FA217B307E407F50720F0A21BB30B94
:10195000E40BF50B661F771F881F991F1A9469F710
:1019600060957095809590959B01AC01BD01CF016C
:101970000895052E97FB16F400940FD057FD05D05F
:10198000D6DF07FC02D046F408C05095409530954C
:1019900021953F4F4F4F5F4F0895909580957095DB
:1019A00061957F4F8F4F9F4F0895B7FF04C003D0BD
:1019B000821B930B089509D0A59F900DB49F900DA5
:1019C000A49F800D911D11240895A29FB001B39F83
:1019D000C001A39F01D0B29F700D811D1124911DE4
:1019E0000895FC0188279927E89421912032E9F392
:1019F000293010F02E30C8F32B3239F02D3231F46B
:101A0000689403C01CD0820F911D219120532A306D
:101A1000C8F31EF4909581959F4F0895DC0101C095
:101A20006D9341505040E0F70895BB274A3031F4A0
:101A3000992322F4BDE2909581959F4F09C07AE0E9
:101A4000979F902D879F802D910D11240895BB277E
:101A5000FB015527AA27880F991FAA1FA41710F06A
:101A6000A41B83955051B9F7A05DAA3308F0A95D76
:101A7000A193009779F7B111B1931192CB0100C0F6
:101A8000DC01FC01672F71917723E1F7329704C0E5
:101A90007C916D9370836291AE17BF07C8F3089570
:101AA000DC01CB01FC01E199FECF06C0FFBBEEBB20
:101AB000E09A31960DB20D9241505040B8F708951A
:101AC000E199FECF9FBB8EBBE09A99278DB3089515
:101AD000A8E1B0E042E050E0E5CFDC01CB0102C07C
:101AE0002D9105D041505040D8F70895262FE19907
:101AF000FECF9FBB8EBB2DBB0FB6F894E29AE19A46
:101B00000FBE01960895F2DF272FF1CFF894FFCF93
:00000001FF
