:1000000045C121C22CC652C151C250C14FC14EC1BF
:100010004DC1D2C14BC12EC860C848C148C146C1FC
:1000200045C144C143C11EC7ADC7ACC7ABC7AAC712
:10003000A9C7A8C7A7C7A6C7A5C7A4C7A3C7A2C75C
:10004000A1C7A0C79FC79EC79DC79CC79BC710C716
:1000500014C718C797C796C795C794C793C792C7C1
:1000600091C790C78FC78EC78DC78CC78BC78AC7EC
:1000700089C788C787C786C785C784C783C782C71C
:1000800081C780C77FC77EC77DC77CC77BC77AC74C
:1000900079C778C777C776C775C774C773C772C77C
:1000A00071C770C76FC76EC7A9C66CC7FBC6B3C69A
:1000B00069C768C7ECC666C753C764C741C762C78C
:1000C0000BC71CC7EBC62CC75DC75CC7BEC6E8C65E
:1000D000F6C656C7ADC649646C650D0A001B63437E
:1000E0006F6D70696C656420417567203132203214
:1000F0003031382031373A35343A3032207769742C
:1001000068204156522D47434320352E342E30204F
:10011000616E6420415652204C69626320322E3059
:100120002E300D0A00415344572C73706163652CC7
:10013000546F67676C655F6D6F64652C70696E479F
:100140002C6164635F4F6E63652C436F6C6C6469F4
:1001500073742C7455726E646973742C4D61782CB1
:100160006D694E2C6B502C4B642C6B492C64756D57
:10017000705F6E560D0A004B693D004B643D004BAD
:10018000703D007475726E446973743D00636F6CEA
:100190006C446973743D0070696E673D000D0A61BF
:1001A00064635F6D61783D000D0A6164635F6D6932
:1001B0006E3D002C204B643D002C204B693D000D12
:1001C0000A4B703D002C207475726E446973743D47
:1001D00000636F6C6C446973743D000D0A4E657763
:1001E0002076616C75653A20004C696E6520666FFB
:1001F0006C6C6F770D0A0049646C650D0A00436FE3
:100200006C6C6973696F6E2061766F69640D0A00AA
:100210002C2073746174653D002C20002C206176C5
:10022000673D0040006D696E3D0070696E673D007E
:100230002C207069643D002C206465723D002C20E8
:1002400069743D002C20706F733D002C20006D6F91
:10025000746F723D00666F72776172642C20007358
:10026000746F702C20006261636B776172642C2064
:10027000006C6566742C200072696768742C20001D
:100280002C20000D0A006164633D000011241FBE94
:10029000CFE5D4E0DEBFCDBF21E0A0E6B0E001C0F5
:1002A0001D92A639B207E1F771D6EDC9A9CE1F920A
:1002B0000F920FB60F9211248F93EF93FF938091BB
:1002C00076018823A1F080916600882381F0E09177
:1002D0006500E11107C085B18093950181E08093AD
:1002E00065001FC0F0E085B1E057FE4F808380912C
:1002F00065008F5F853018F48093650012C01092FE
:10030000650080917601882341F08091660081111B
:1003100004C081E08093660004C0109276011092C0
:10032000660080916500805A87B9FF91EF918F91A7
:100330000F900FBE0F901F90189585B7816085BFF5
:100340008BB780648BBF10926F0110927201109274
:1003500073011092740110927501AD9885E18A9530
:10036000F1F70000AD9A85E38A95F1F70000AD98AA
:10037000829B05C0809163009091640008958091F4
:100380006F018823E1F385B78E7F85BF8BB78F7BA5
:100390008BBF609172017091730180917401909193
:1003A00075012CEA33E040E050E08BD8C90130936E
:1003B00064002093630008951F920F920FB60F926E
:1003C00011242F938F939F93AF93BF9380917201CA
:1003D00090917301A0917401B091750181509F4F6C
:1003E000AF4FBF4F8093720190937301A09374013C
:1003F000B093750181399D44A440B105D0F013BE7E
:1004000022B78091720190917301A0917401B09113
:100410007501820F911DA11DB11D809372019093F2
:100420007301A0937401B093750112BE81E08093B3
:100430006F01BF91AF919F918F912F910F900FBE40
:100440000F901F9018951F920F920FB60F921124C4
:100450002F938F939F93AF93BF93829B03C081E0B1
:1004600083BF1AC013BE22B78091720190917301AD
:10047000A0917401B0917501820F911DA11DB11D54
:100480008093720190937301A0937401B0937501EE
:1004900012BE81E080936F01BF91AF919F918F91C8
:1004A0002F910F900FBE0F901F9018951F920F92D3
:1004B0000FB60F9211242F933F938F939F938091A8
:1004C00062008034B1F510926200809161009091D9
:1004D0009001891724F48F5F8093610005C09817FD
:1004E0001CF48150809361008091600090917101B3
:1004F000891724F48F5F8093600005C098171CF45F
:100500008150809360008091610088231CF494984E
:10051000959A04C0181614F49598949A80916000E6
:1005200088231CF49798969A04C0181614F4969889
:10053000979A2091620030E080916100082E000CB3
:10054000990B99231CF491958195910928173907E6
:1005500019F482B38F7C82BB2091620030E08091DD
:100560006000082E000C990B99231CF4919581953D
:1005700091092817390719F482B38F7382BB8091D0
:1005800062008F5F809362009F918F913F912F91C6
:100590000F900FBE0F901F901895CF93DF93EB0134
:1005A0001CD64AE068E771E0CE01FCD788E791E00D
:1005B00006D6DF91CF91089583E892E00ED6089594
:1005C00080E892E00AD60895EF92FF920F931F936E
:1005D000CF93DF93E62EF72EEA01FFD521970E2D5C
:1005E0001F2D0FC0F80181918F014AE068E771E08B
:1005F00090E0EAD788E791E0E2D5209709F0E0DFC4
:100600002197CF3FFFEFDF0769F7DF91CF911F9170
:100610000F91FF90EF90089545E050E061E971E09F
:1006200086E892E0D1DF0895809190019091710168
:10063000891724F488E792E0D0D519C0981724F4DC
:1006400081E792E0CAD513C0882334F4992324F4B7
:1006500086E692E0C2D50BC0811106C0911104C09C
:100660008FE592E0BAD503C085E592E0B6D56091FA
:100670009001062E000C770B8EE492E08EDF6091E5
:100680007101062E000C770B8BE492E086DF94DF7D
:1006900008952F923F924F925F926F927F928F9226
:1006A0009F92AF92BF92CF92DF92EF92FF920F9301
:1006B0001F93CF93DF93CDB7DEB728970FB6F8948B
:1006C000DEBF0FBECDBFC09A86B1806C86B9212C2B
:1006D000312C1E821D82D2C021E0209376018091B0
:1006E00076018111FCCF82E891E098878F8307E83B
:1006F00011E080E89FEFAFEFBFEF89839A83AB8370
:10070000BC83E0E0F0E0812C912C5401412C512C71
:100710003201DF01AF56BE4F8C91AF81B8856D912C
:10072000B887AF8370E090E0681779070CF4CB01CD
:10073000D8012D918D0130E0821793070CF4C90187
:10074000821B930B982F621B730B80E0A7D66B0163
:10075000770FEE08FF0829813A814B815C81C70140
:10076000B60179D6460E571E681E791E8C0C9D1C4C
:10077000AE1CBF1C3196DA01C901805C9F4FAF4FA0
:10078000BF4F89839A83AB83BC83E530F10509F6BB
:10079000C301B201A5019401B6D669017A018901AC
:1007A000AD81BE810A1B1B0B220E331E80918E0170
:1007B00090918F018C9D90018D9D300D9C9D300DF1
:1007C000112440916D0150916E01249EC001259E1F
:1007D000900D349E900D1124820F931F40918C0137
:1007E00050918D01049F9001059F300D149F300D95
:1007F0001124820F931F64E670E050D661387105B2
:1008000014F060E870E07A83698360387F4F24F4E5
:1008100020E829838FEF8A83FFDEB60184E492E02B
:10082000BCDEB1018EE392E0B8DEB80187E392E06E
:10083000B4DE69817A8180E392E0AFDEC1DEA98116
:10084000BA81BB233CF4A05CA0939001B0E4B093C8
:10085000710108C020E42093900180E49981891BF4
:1008600080937101E1DEAFEFB1EE24E0A150B04022
:100870002040E1F700C00000DE82CD82BFD4892B8A
:1008800029F480916700813009F426CF86B18F73F7
:1008900086B9C09828960FB6F894DEBF0FBECDBFBC
:1008A000DF91CF911F910F91FF90EF90DF90CF904C
:1008B000BF90AF909F908F907F906F905F904F9080
:1008C0003F902F9008952F923F924F925F926F9298
:1008D0007F928F929F92AF92BF92CF92DF92EF92D0
:1008E000FF920F931F93CF93DF93CDB7DEB76B9734
:1008F0000FB6F894DEBF0FBECDBFFE01319686E184
:10090000DF011D928A95E9F783EE9CE09BBD8ABDCD
:10091000BFEFE1EEF4E0B150E040F040E1F700C09D
:100920000000312C27E02A8F33E03B8F0F2EF5E0BB
:100930005F2EF02D412C198ECE010196988F8F8B52
:10094000212C41C1FADCE52DF0E0EE0FFF1FA1E004
:10095000B0E0AC0FBD1FEA0FFB1F91838083B98D00
:10096000BB2379F06AB57BB580E090E0E6D420E067
:1009700030E044EB53E450D4B4D47BBD6ABD5A9408
:100980000EC06AB57BB580E090E0D7D420E030E0BF
:1009900044EB53E442D4A5D47BBD6ABD5394E5E057
:1009A0005E1204C023EE3CE03BBD2ABD3A8D5316D7
:1009B00028F44B8D451520F0298E02C081E0898FE7
:1009C0008AE292E00AD4DE0111967D0110E0712CDA
:1009D00000E0622CA12CB12C812C912C0F2EFCE27A
:1009E000CF2EF02DDD24D394F701819191917F01D9
:1009F0009C01215031092B32314078F4153018F424
:100A0000A80EB91E7394163018F0880E991E0F5F49
:100A10008C159D0510F4612E6C014AE068E771E0C9
:100A2000D3D588E791E0CBD3CBDD1F5F1B30E1F658
:100A3000772029F0672D70E0C5011CD55B010023EC
:100A400029F0602F70E0C40115D54B01332049F027
:100A50003A94311006C0AF89B88DE6E11D92EA954F
:100A6000E9F7B60185E292E098DD662D70E083E259
:100A700092E093DDB5018CE192E08FDDB40189E174
:100A800092E08BDD642D70E080E192E086DD98DD00
:100A9000CBDD8FEF840D823008F458C08091770150
:100AA00090E0C816D90690F48DEF860D853070F46D
:100AB000F5E04F1609F47EC020ED209390012093BD
:100AC00071010F2EF5E04F2EF02D74C08091700152
:100AD00090E0C816D90630F533E0431215C08A14E9
:100AE0009B0448F42092900140E440937101689483
:100AF000442442F85FC080E4809390012092710109
:100B00006894442442F856C094E0491609F452C04F
:100B10002092900120927101AAE0AA8F2B8E44248A
:100B2000439448C0B5E04B120AC020929001209235
:100B30007101EAE0EA8F2B8E442443943BC0F0E439
:100B4000F0939001F0937101422C34C022E04212E4
:100B500007C03B8D531689F04A8D54122BC01AC022
:100B600081E0481227C09B8D591609F1AA8D5A12AF
:100B700021C06894442441F81DC00F2EFAE03F2E96
:100B8000F02DB7E0BA8FE3E0EB8F0F2EF3E04F2E9E
:100B9000F02D10C00F2EFAE03F2EF02DF7E0FA8F67
:100BA00023E02B8F0F2EF3E04F2EF02D03C068941F
:100BB000442441F83FEF41EE84E031504040804012
:100BC000E1F700C000001AD3892B29F48091670057
:100BD000823009F4B7CE6B960FB6F894DEBF0FBE25
:100BE000CDBFDF91CF911F910F91FF90EF90DF90DC
:100BF000CF90BF90AF909F908F907F906F905F90BD
:100C00004F903F902F90089580916700813021F0A0
:100C1000A8F0823051F01AC082E080936700C0983B
:100C2000C29A8EEF91E0D9D211C01092670088B3BA
:100C30008A7F88BB87EF91E0D0D208C081E08093A3
:100C40006700C298C09A89EE91E0C7D210929001D5
:100C50001092710183EE9CE09BBD8ABD089578944B
:100C60001F920F920FB60F9211242F933F934F9321
:100C70005F936F937F938F939F93AF93BF93EF9304
:100C8000FF932FEF81EE94E0215080409040E1F7F8
:100C900000C00000B9DF2FEF83ED90E321508040CA
:100CA0009040E1F700C00000FF91EF91BF91AF913C
:100CB0009F918F917F916F915F914F913F912F9174
:100CC0000F900FBE0F901F901895CF93DF9365DCA8
:100CD0008BED91E082D2D0E091D2892BE9F33AD228
:100CE000C82F8D3221F080ED8C0F8A3040F48C2F8C
:100CF00051D2ED2FF0E0E858FE4FC083DF5FC830DF
:100D0000A1F0CF3721F411C08C2F44D2D150CD3077
:100D100011F0DA3008F3ED2FF0E0E858FE4F1082C2
:100D20004BDC88E791E021D403C0DD23A9F2ECCFAE
:100D3000DF91CF910895C09A86B1806C86B981E029
:100D400080937601809176018111FCCF86B18F73FB
:100D500086B9C09861DC30DC0895809190018134BF
:100D60000CF080E4803C0CF480EC80939001809146
:100D7000710181340CF080E4803C0CF480EC8093B1
:100D8000710108956091770170E081ED91E005DCDB
:100D90006091700170E085EC91E0FFDB60918E0165
:100DA00070918F018FEB91E0F8DB60916D01709194
:100DB0006E0189EB91E0F1DB60918C0170918D0106
:100DC00083EB91E0EADB45E050E067E871E088EA18
:100DD00091E0FADB45E050E062E871E08DE991E0F6
:100DE000F3DBEADB0895B6D180978835910508F0EA
:100DF000C9C08D5E9F4F8F939F93089580919001FE
:100E00008A5E809390018091710186518093710177
:100E1000A4DF0ADC089580919001865180939001AF
:100E2000809171018A5E8093710197DFFDDB0895E7
:100E3000809190018A5E80939001809171018A5E19
:100E4000809371018ADFF0DB0895809190018651D3
:100E500080939001809171018651809371017DDFB3
:100E6000E3DB08951092900110927101DDDB08958B
:100E70008BED95E09BBD8ABD089583EE9CE09BBD04
:100E80008ABD08958BEE93E19BBD8ABD089555DA26
:100E9000BC0187E991E081DB8FDB08954CDF089589
:100EA000B3DE08956091770170E08DE891E00DDF89
:100EB00080937701682F81E190E0D5D30895609108
:100EC000700170E083E891E000DF80937001682F8B
:100ED00080E190E0C8D308952EDF85E0E1E9F1E0FC
:100EE000A2E8B1E001900D928A95E1F745E050E06B
:100EF00066E070E082E891E0ADD308951CDF85E004
:100F0000E1E9F1E0A7E8B1E001900D928A95E1F7FF
:100F100045E050E06BE070E087E891E09BD30895F6
:100F200060918E0170918F018FE791E0CEDE9093FA
:100F30008F0180938E01BC0184E090E0A1D30895DD
:100F400060918C0170918D018BE791E0BEDE9093F2
:100F50008D0180938C01BC0182E090E091D30895D3
:100F600060916D0170916E0187E791E0AEDE909324
:100F70006E0180936D01BC0180E090E081D3089503
:100F800001DF089585E291E028D1089587E690E099
:100F9000CBD080E687B98FE286B985B5816085BD03
:100FA00089B7806489BF81B3806F81BB82B38F7042
:100FB00082BBB99A8FB582688FBD8EB58A618EBDAE
:100FC0008FE39CE997BD86BD83EE9CE09BBD8ABD07
:100FD000A59A929A89B7816089BF85B78C6085BFD1
:100FE0008BB780688BBF87B3856087BB81E190E05A
:100FF00024D38093770180E190E01FD38093700128
:1010000045E050E066E070E082E891E006D345E01C
:1010100050E06BE070E087E891E0FFD284E090E080
:1010200014D390938F0180938E0182E090E00DD3D2
:1010300090938D0180938C0180E090E006D3909393
:101040006E0180936D0178948DED90E0C6D09ADEAC
:1010500086ED90E0C2D080916700813019F0823037
:1010600019F003C016DB01C02EDCC8D0892B99F320
:10107000BADEF1CF1F920F920FB60F9211242F9369
:101080003F934F935F938F939F93EF93FF932BB176
:101090003CB1287180916A0090E001968F77992782
:1010A0004091690050E08417950739F080936A00F9
:1010B000FC01E359FF4F308301C022E02093680018
:1010C000FF91EF919F918F915F914F913F912F9160
:1010D0000F900FBE0F901F9018951F920F920FB692
:1010E0000F9211248F939F93EF93FF9390916C0035
:1010F00080916B00981771F080916B0090E00196E1
:101100008F77992780936B00FC01E351FF4F80811B
:101110008CB901C05598FF91EF919F918F910F90DD
:101120000FBE0F901F901895F89410926C001092BB
:101130006B0010926A0010926900789499231CF455
:1011400022E02BB99F7790BD89B988E98AB986E8F2
:1011500080BD0895F89490916A0080916900981379
:1011600004C0789480E091E00895789480916900BB
:1011700090E001968F77992780936900FC01E359ED
:10118000FF4F20818091680090E0982F8827820F80
:10119000911D089540916C0050E04F5F5F4F4F7775
:1011A000552720916B0030E042175307D1F3FA0125
:1011B000E351FF4F808340936C00559A0895CF937D
:1011C000DF93EC018881882329F02196E3DF899160
:1011D0008111FCCFDF91CF910895CF93DF93EC0184
:1011E0002196FC018491882331F0D4DFFE018491A3
:1011F00021968111FACFDF91CF910895F8948091D3
:101200006A0020916900789490E080589F4F821B7B
:1012100091098F77992708955058BB27AA270ED098
:10122000E0C0D1D030F0D6D020F031F49F3F11F49F
:101230001EF4C6C00EF4E095E7FBBCC0E92FE2D077
:1012400080F3BA17620773078407950718F071F4E3
:101250009EF5FAC00EF4E0950B2EBA2FA02D0B01CF
:10126000B90190010C01CA01A0011124FF27591BEB
:1012700099F0593F50F4503E68F11A16F040A22FF1
:10128000232F342F4427585FF3CF46953795279562
:10129000A795F0405395C9F77EF41F16BA0B620B61
:1012A000730B840BBAF09150A1F0FF0FBB1F661FA8
:1012B000771F881FC2F70EC0BA0F621F731F841FEB
:1012C00048F4879577956795B795F7959E3F08F011
:1012D000B3CF9395880F08F09927EE0F97958795D0
:1012E000089598D088F09F5790F0B92F9927B7515B
:1012F000A0F0D1F0660F771F881F991F1AF0BA95DA
:10130000C9F712C0B13081F09FD0B1E008959CC000
:10131000672F782F8827B85F39F0B93FCCF38695CF
:1013200077956795B395D9F73EF49095809570952C
:1013300061957F4F8F4F9F4F0895E89409C097FBA9
:101340003EF490958095709561957F4F8F4F9F4F9C
:101350009923A9F0F92F96E9BB279395F6958795E0
:1013600077956795B795F111F8CFFAF4BB0F11F4A3
:1013700060FF1BC06F5F7F4F8F4F9F4F16C088234A
:1013800011F096E911C0772321F09EE8872F762F80
:1013900005C0662371F096E8862F70E060E02AF0C1
:1013A0009A95660F771F881FDAF7880F96958795AD
:1013B00097F9089597F99F6780E870E060E00895D5
:1013C0009FEF80EC089500240A941616170618065D
:1013D0000906089500240A94121613061406050639
:1013E0000895092E0394000C11F4882352F0BB0FCA
:1013F00040F4BF2B11F460FF04C06F5F7F4F8F4F2D
:101400009F4F089557FD9058440F551F59F05F3F67
:1014100071F04795880F97FB991F61F09F3F79F016
:1014200087950895121613061406551FF2CF469598
:10143000F1DF08C0161617061806991FF1CF86951A
:101440007105610508940895E894BB2766277727FE
:10145000CB0197F90895DB018F939F9370D0BF91D3
:10146000AF91A29F800D911DA39F900DB29F900DF3
:1014700011240895AA1BBB1B51E107C0AA1FBB1F63
:10148000A617B70710F0A61BB70B881F991F5A9510
:10149000A9F780959095BC01CD01089597FB072E83
:1014A00016F4009406D077FD08D0E4DF07FC05D0E1
:1014B0003EF4909581959F4F0895709561957F4F6B
:1014C0000895A1E21A2EAA1BBB1BFD010DC0AA1F85
:1014D000BB1FEE1FFF1FA217B307E407F50720F09D
:1014E000A21BB30BE40BF50B661F771F881F991F18
:1014F0001A9469F760957095809590959B01AC0161
:10150000BD01CF010895052E97FB16F400940FD06E
:1015100057FD05D0D6DF07FC02D046F408C0509531
:101520004095309521953F4F4F4F5F4F08959095CF
:101530008095709561957F4F8F4F9F4F089509D08B
:10154000A59F900DB49F900DA49F800D911D112417
:101550000895A29FB001B39FC001A39F01D0B29F85
:10156000700D811D1124911D0895FC018827992774
:10157000E89421912032E9F3293010F02E30C8F39D
:101580002B3239F02D3231F4689403C015D0820F1C
:10159000911D219120532A30C8F31EF49095819516
:1015A0009F4F0895BB274A3031F4992322F4BDE2BE
:1015B000909581959F4F09C07AE0979F902D879FC6
:1015C000802D910D11240895BB27FB015527AA27D3
:1015D000880F991FAA1FA41710F0A41B83955051C0
:1015E000B9F7A05DAA3308F0A95DA193009779F738
:1015F000B111B1931192CB0100C0DC01FC01672F46
:1016000071917723E1F7329704C07C916D937083D9
:101610006291AE17BF07C8F30895DC01CB01FC014E
:10162000E199FECF06C0FFBBEEBBE09A31960DB24A
:101630000D9241505040B8F70895E199FECF9FBBFD
:101640008EBBE09A99278DB30895A8E1B0E042E0FF
:1016500050E0E5CFDC01CB0102C02D9105D0415017
:101660005040D8F70895262FE199FECF9FBB8EBB3F
:101670002DBB0FB6F894E29AE19A0FBE0196089539
:0A168000F2DF272FF1CFF894FFCF1F
:00000001FF
