:1000000094C170C29FC6A1C2A0C19FC19EC19DC123
:100010009CC121C29AC12CC95EC997C197C195C123
:1000200094C193C192C1B7C78FC88EC88DC88CC800
:100030008BC88AC889C888C887C886C885C884C844
:1000400083C882C881C880C87FC87EC87DC8A9C748
:10005000ADC7B1C779C878C877C876C875C874C83D
:1000600073C872C871C870C86FC86EC86DC86CC8D4
:100070006BC86AC869C868C867C866C865C864C804
:1000800063C862C861C860C85FC85EC85DC85CC834
:100090005BC85AC859C858C857C856C855C854C864
:1000A00053C852C851C850C842C74EC894C74CC75D
:1000B0003EC801C885C71DC8ECC746C8DAC728C8EE
:1000C000A4C7B5C784C7C5C73FC804C857C781C739
:1000D0008FC7EFC746C749646C650D0A001B6343B1
:1000E0006F6D70696C65642041756720313920320D
:1000F0003031382031363A35363A32372077697424
:1001000068204156522D47434320352E342E30204F
:10011000616E6420415652204C69626320322E3059
:100120002E300D0A00415344572C73706163652CC7
:10013000546F67676C655F6D6F64652C70696E479F
:100140002C6164635F4F6E63652C436F6C6C6469F4
:1001500073742C7455726E646973742C6164635F7C
:100160004D61782C6164635F6D694E2C6B502C4B34
:10017000642C6B492C64756D705F6E562C467764E9
:1001800073706565642C52657673706565642C7454
:1001900075726E737064482C7475726E7370644CF3
:1001A0002C724574656E74696F6E0D0A0072657409
:1001B000656E74696F6E3D007475726E5370644C39
:1001C0003D007475726E537064483D0072657653DD
:1001D000706565643D0066776453706565643D00D5
:1001E0004B693D004B643D004B703D007475726E71
:1001F000446973743D00636F6C6C446973743D00B3
:1002000070696E673D000D0A6164635F6D61783DE2
:10021000000D0A6164635F6D696E3D002C204B64C4
:100220003D002C204B693D000D0A4B703D002C20F9
:10023000002C207475726E53706565643D002C202F
:1002400072657653706565643D000D0A6677645388
:10025000706565643D002C20726574656E74696F0D
:100260006E3D002C207475726E446973743D00639A
:100270006F6C6C446973743D000D0A4E657720768F
:10028000616C75653A20004C696E6520666F6C6C18
:100290006F770D0A0049646C650D0A00436F6C6C42
:1002A0006973696F6E2061766F69640D0A002C2096
:1002B00073746174653D002C20002C206176673DCD
:1002C0000040006D696E3D0070696E673D002C2036
:1002D0007069643D002C206465723D002C206974B7
:1002E0003D002C20706F733D002C20006D6F746FEB
:1002F000723D00666F72776172642C200073746FB8
:10030000702C20006261636B776172642C20006C3A
:100310006566742C200072696768742C20002C209C
:10032000000D0A006164633D000011241FBECFE58B
:10033000D4E0DEBFCDBF21E0A0E6B0E001C01D9259
:10034000AC39B207E1F704D793CA5ACE1F920F9285
:100350000FB60F9211248F93EF93FF938091690052
:100360008823A1F080916600882381F0E0916500E8
:10037000E11107C085B180939B0181E08093650006
:100380001FC0F0E085B1EA56FE4F80838091650082
:100390008F5F853018F48093650012C0109265005D
:1003A00080916900882341F080916600811104C02A
:1003B00081E08093660004C010926900109266008C
:1003C00080916500805A87B9FF91EF918F910F90CE
:1003D0000FBE0F901F90189585B7816085BF8BB7B2
:1003E00080648BBF10927201109276011092770197
:1003F0001092780110927901AD9885E18A95F1F714
:100400000000AD9A85E38A95F1F70000AD98829BD4
:1004100005C08091630090916400089580917201FD
:100420008823E1F385B78E7F85BF8BB78F7B8BBF2A
:1004300060917601709177018091780190917901B6
:100440002CEA33E040E050E02BD9C901309364003E
:100450002093630008951F920F920FB60F921124FC
:100460002F938F939F93AF93BF9380917601909139
:100470007701A0917801B091790181509F4FAF4FE2
:10048000BF4F8093760190937701A0937801B0934A
:10049000790181399D44A440B105D0F013BE22B743
:1004A0008091760190917701A0917801B0917901C6
:1004B000820F911DA11DB11D80937601909377014C
:1004C000A0937801B093790112BE81E0809372010C
:1004D000BF91AF919F918F912F910F900FBE0F9071
:1004E0001F9018951F920F920FB60F9211242F9301
:1004F0008F939F93AF93BF93829B03C081E083BF91
:100500001AC013BE22B78091760190917701A09115
:100510007801B0917901820F911DA11DB11D8093C9
:10052000760190937701A0937801B093790112BE80
:1005300081E080937201BF91AF919F918F912F9134
:100540000F900FBE0F901F9018951F920F920FB62D
:100550000F9211242F933F938F939F93809162006A
:10056000803409F043C010926200809168008823B3
:10057000F9F08091610090919601891724F48F5FC2
:100580008093610005C098171CF48150809361002E
:100590008091600090917501891724F48F5F80939A
:1005A00060000EC0981764F481508093600008C00A
:1005B0008091960180936100809175018093600025
:1005C0008091610088231CF49498959A04C01816B1
:1005D00014F49598949A8091600088231CF497985D
:1005E000969A04C0181614F49698979A209162006F
:1005F00030E080916100082E000C990B99231CF4C7
:100600009195819591092817390719F482B38F7C48
:1006100082BB2091620030E080916000082E000CC7
:10062000990B99231CF49195819591092817390705
:1006300019F482B38F7382BB809162008F5F8093C5
:1006400062009F918F913F912F910F900FBE0F905D
:100650001F901895CF93DF93EB01BDD64AE06CE76E
:1006600071E0CE0194D88CE791E0A7D6DF91CF91CD
:10067000089581E293E0AFD608958EE193E0ABD682
:100680000895EF92FF920F931F93CF93DF93E62E7F
:10069000F72EEA01A0D621970E2D1F2D0FC0F801CD
:1006A00081918F014AE06CE771E090E082D88CE79D
:1006B00091E083D6209709F0E0DF2197CF3FFFEF4D
:1006C000DF0769F7DF91CF911F910F91FF90EF90B6
:1006D000089545E050E067E971E084E293E0D1DFFE
:1006E00008958091960190917501891724F486E10F
:1006F00093E071D619C0981724F48FE093E06BD67D
:1007000013C0882334F4992324F484E093E063D65F
:100710000BC0811106C0911104C08DEF92E05BD631
:1007200003C083EF92E057D660919601062E000C2D
:10073000770B8CEE92E08EDF60917501062E000C37
:10074000770B89EE92E086DF94DF08952F923F9237
:100750004F925F926F927F928F929F92AF92BF92D1
:10076000CF92DF92EF92FF920F931F93CF93DF937D
:1007700000D000D000D0CDB7DEB7C09A86B1806C73
:1007800086B91A8219821C821B82212C332433944D
:10079000ECC021E020936900809169008111FCCFB9
:1007A0000F2EF6E84F2EF1E05F2EF02D0F2EFBE816
:1007B0006F2EF1E07F2EF02D6894CC24C7F8DD2455
:1007C000DA94ED2CFD2CE0E0F0E0812C912C54012A
:1007D00000E010E0DF01A956BE4F8C91D2016D916F
:1007E0002D0170E090E0681779070CF4CB01D3017C
:1007F0002D913D0130E0821793070CF4C901821B53
:10080000930B982F621B730B80E037D77E836D8329
:10081000B49B05C0C101861B970B9E838D83AD8160
:10082000BE81A70196017AD7860E971EA81EB91E13
:100830000A0F1B1F319690E4C90ED11CE11CF11C5C
:10084000E530F10539F60115110551F0C501B40186
:100850009801012E000C440B550B44D7790102C0BE
:10086000E12CF12C6701AB81BC81CA1ADB0A6981DA
:100870007A816E0D7F1D7A836983809194019091B6
:100880009501E89E9001E99E300DF89E300D1124EF
:100890004091700150917101649FC001659F900D5E
:1008A000749F900D1124820F931F409191015091DC
:1008B0009201C49E9001C59E300DD49E300D11242E
:1008C000820F931F64E670E0D8D66138710514F08A
:1008D00060E870E07C836B8360387F4F24F490E89D
:1008E0009B83AFEFAC83F5DEB70182EE92E0B2DE20
:1008F00069817A818CED92E0ADDEB60185ED92E002
:10090000A9DE6B817C818EEC92E0A4DEB6DE6B8189
:100910007C8177233CF4605C6093960170E4709373
:10092000750107C080E4809396019B81891B8093A9
:1009300075010115110519F00115154049F41092C2
:1009400096011092750188B3B8E08B2788BB01C06F
:10095000C39AC7DE2FEF61EE74E021506040704013
:10096000E1F700C00000FC82EB8246D5892B29F418
:1009700080916700813009F40CCF86B18F7386B9FE
:10098000C09826960FB6F894DEBF0FBECDBFDF919C
:10099000CF911F910F91FF90EF90DF90CF90BF907C
:1009A000AF909F908F907F906F905F904F903F900F
:1009B0002F9008952F923F924F925F926F927F9265
:1009C0008F929F92AF92BF92CF92DF92EF92FF925F
:1009D0000F931F93CF93DF93CDB7DEB76A970FB610
:1009E000F894DEBF0FBECDBFFE01319686E1DF0178
:1009F0001D928A95E9F783EE9CE09BBD8ABDBFEF0F
:100A0000E1EEF4E0B150E040F040E1F700C000005A
:100A100081E080936800312C27E0298F33E03A8F02
:100A20000F2EF5E05F2EF02D412C212CCE010196EA
:100A3000988F8F8B39C1D0DCE52DF0E0EE0FFF1FD2
:100A4000A1E0B0E0AC0FBD1FEA0FFB1F91838083D4
:100A5000222079F06AB57BB580E090E06CD520E08B
:100A600030E044EB53E4D6D43AD57BBD6ABD5A940A
:100A70000EC06AB57BB580E090E05DD520E030E047
:100A800044EB53E4C8D42BD57BBD6ABD5394B5E089
:100A90005B1204C0E3EEFCE0FBBDEABDF98D5F161E
:100AA00028F42A8D251520F0212C02C0222423941D
:100AB00088EC92E090D4CE0101967C0110E000E039
:100AC000712C612CA12CB12C812C912C0F2EFCE2CD
:100AD000CF2EF02DDD24D394D7018D919D917D01F2
:100AE0009C01215031092B32314080F4153020F423
:100AF000A80EB91E0F5F05C0163018F0880E991E9B
:100B000073948C159D0510F4612E6C014AE06CE71E
:100B100071E04FD68CE791E050D4AFDD1F5F1B3002
:100B2000D9F6002329F0602F70E0C50192D55B0152
:100B3000772029F0672D70E0C4018BD54B0133205D
:100B400049F03A94311006C0EF89F88D26E11192F0
:100B50002A95E9F7B60183EC92E07CDD662D70E022
:100B600081EC92E077DDB5018AEB92E073DDB401B0
:100B700087EB92E06FDD642D70E08EEA92E06ADD33
:100B80007CDDAFDD8FEF840D823008F460C0809192
:100B90007A0190E0C816D90698F48DEF860D85305D
:100BA00078F435E0431609F476C080919001809383
:100BB0009601809375010F2EF5E04F2EF02D6BC03E
:100BC0008091740190E0C816D90660F543E04412A4
:100BD0001BC08A149B0460F480917B018093960172
:100BE00080916F01809375016894442442F853C04A
:100BF00080916F018093960180917B0180937501B4
:100C00006894442442F847C084E0481609F443C07D
:100C100010929601109275019AE0998F1A8E4424D1
:100C2000439439C0A5E04A120AC01092960110926E
:100C30007501BAE0B98F1A8E442443942CC0809178
:100C400093018093960180937501412C24C0E2E0CA
:100C50004E1211C0FA8D5F1619F0298D52121BC069
:100C60003090730137E0398F43E04A8F0F2EF3E065
:100C70004F2EF02D10C081E048120DC09A8D5916EC
:100C800039F0A98D5A1207C06894442441F803C072
:100C90006894442441F8BFEFE1EEF4E0B150E04045
:100CA000F040E1F700C00000A7D3892B29F4809120
:100CB0006700823009F4BFCE109268006A960FB6C2
:100CC000F894DEBF0FBECDBFDF91CF911F910F9182
:100CD000FF90EF90DF90CF90BF90AF909F908F905C
:100CE0007F906F905F904F903F902F9008958091EC
:100CF0006700813021F0A8F0823051F01AC082E004
:100D000080936700C398C29A8CE992E064D311C0C3
:100D10001092670088B3837F88BB85E992E05BD33C
:100D200008C081E080936700C298C39A87E892E088
:100D300052D3109296011092750183EE9CE09BBDF8
:100D40008ABD089578941F920F920FB60F921124C6
:100D50002F933F934F935F936F937F938F939F93C3
:100D6000AF93BF93EF93FF932FEF81EE94E0215069
:100D700080409040E1F700C00000B9DF2FEF83ED25
:100D800090E3215080409040E1F700C00000FF91C7
:100D9000EF91BF91AF919F918F917F916F915F91F3
:100DA0004F913F912F910F900FBE0F901F9018956C
:100DB000CF93DF934FDC89E792E00DD3D0E01CD3D3
:100DC000892BE9F3C5D2C82F8D3221F080ED8C0F2D
:100DD0008A3040F48C2FDCD2ED2FF0E0E458FE4F47
:100DE000C083DF5FC830A1F0CF3721F411C08C2F52
:100DF000CFD2D150CD3011F0DA3008F3ED2FF0E042
:100E0000E458FE4F108235DC8CE791E0A3D403C098
:100E1000DD23A9F2ECCFDF91CF910895C09A86B17E
:100E2000806C86B981E080936900809169008111AE
:100E3000FCCF86B18F7386B9C0984BDC1ADC08955D
:100E40008091960181340CF080E4803C0CF480ECBD
:100E5000809396018091750181340CF080E4803C90
:100E60000CF480EC80937501089560917A0170E034
:100E70008FE692E0EFDB6091740170E083E692E030
:100E8000E9DB6091730170E086E592E0E3DB60915D
:100E90009301062E000C770B8AE492E0DBDB609175
:100EA0009001062E000C770B8EE392E0D3DB60916D
:100EB0006F01062E000C770B81E392E0CBDB609193
:100EC0007B01062E000C770B8EE292E0C3DB609173
:100ED00094017091950188E292E0BCDB6091700111
:100EE0007091710182E292E0B5DB609191017091A5
:100EF00092018CE192E0AEDB45E050E06BE871E0FE
:100F000081E192E0BEDB45E050E066E871E086E01A
:100F100092E0B7DBAEDB08951BD280978835910550
:100F200008F012C18D5E9F4F8F939F93089580911B
:100F300096018A5E80939601809175018651809317
:100F400075017EDFCEDB08958091960186518093F6
:100F50009601809175018A5E8093750171DFC1DB16
:100F60000895809196018A5E809396018091750123
:100F70008A5E8093750164DFB4DB089580919601E9
:100F800086518093960180917501865180937501F9
:100F900057DFA7DB08951092960110927501A1DB2F
:100FA00008958BED95E09BBD8ABD089583EE9CE08E
:100FB0009BBD8ABD08958BEE93E19BBD8ABD0895CC
:100FC0000BDABC0180E092E045DB53DB089526DFBD
:100FD00008958DDE089560917A0170E086EF91E0CA
:100FE000E7DE80937A01682F86E190E031D408959E
:100FF0006091740170E08CEE91E0DADE8093740110
:10100000682F85E190E024D4089508DF85E0E7E9C2
:10101000F1E0A6E8B1E001900D928A95E1F745E094
:1010200050E066E070E086E891E009D40895F6DECD
:1010300085E0E7E9F1E0ABE8B1E001900D928A9537
:10104000E1F745E050E06BE070E08BE891E0F7D32A
:101050000895609194017091950188EE91E0A8DE69
:101060009093950180939401BC0184E090E0FDD3BE
:101070000895609191017091920184EE91E098DE63
:101080009093920180939101BC0182E090E0EDD3B6
:101090000895609170017091710180EE91E088DE99
:1010A0009093710180937001BC0180E090E0DDD3EA
:1010B0000895DBDE089560919301062E000C770BF6
:1010C00086ED91E075DE80939301682F84E190E0D6
:1010D000BFD3089560919001062E000C770B8CEC25
:1010E00091E066DE80939001682F83E190E0B0D3B9
:1010F000089560916F01062E000C770B82EC91E051
:1011000057DE80936F01682F82E190E0A1D30895AC
:1011100060917B01062E000C770B88EB91E048DE96
:1011200080937B01682F81E190E092D308956091D4
:10113000730170E08DEA91E03BDE80937301682FCC
:1011400080E190E085D3089585E291E044D108954F
:1011500087E690E0E7D080E687B98FE286B985B56B
:101160008A6085BD89B7806889BF8EE383BD81B3FE
:10117000806F81BB82B38F7082BBB99A8FB5826852
:101180008FBD8EB58A618EBD8FE39CE997BD86BD0C
:1011900083EE9CE09BBD8ABDA59A929A89B7816037
:1011A00089BF85B78C6085BF8BB780688BBF87B3DD
:1011B0008D6087BBC49A86E190E034D380937A0136
:1011C00085E190E02FD38093740180E190E02AD3F1
:1011D0008093730184E190E025D38093930183E1B0
:1011E00090E020D38093900182E190E01BD3809324
:1011F0006F0181E190E016D380937B0145E050E0E0
:1012000066E070E086E891E0FDD245E050E06BE0FA
:1012100070E08BE891E0F6D284E090E00BD39093FD
:1012200095018093940182E090E004D39093920121
:101230008093910180E090E0FDD2909371018093C2
:10124000700178948DED90E0C6D00FDE86ED90E0D1
:10125000C2D080916700813019F0823019F003C04C
:1012600075DA01C0A7DBC8D0892B99F355DEF1CF21
:101270001F920F920FB60F9211242F933F934F930B
:101280005F938F939F93EF93FF932BB13CB12871A2
:1012900080916C0090E001968F77992740916B00C8
:1012A00050E08417950739F080936C00FC01E159F8
:1012B000FF4F308301C022E020936A00FF91EF913D
:1012C0009F918F915F914F913F912F910F900FBE02
:1012D0000F901F9018951F920F920FB60F92112426
:1012E0008F939F93EF93FF9390916E0080916D0089
:1012F000981771F080916D0090E001968F77992793
:1013000080936D00FC01E151FF4F80818CB901C0D9
:101310005598FF91EF919F918F910F900FBE0F9075
:101320001F901895F89410926E0010926D00109214
:101330006C0010926B00789499231CF422E02BB976
:101340009F7790BD89B988E98AB986E880BD0895FC
:10135000F89490916C0080916B00981304C078947D
:1013600080E091E00895789480916B0090E0019680
:101370008F77992780936B00FC01E159FF4F208103
:1013800080916A0090E0982F8827820F911D089520
:1013900040916E0050E04F5F5F4F4F77552720918F
:1013A0006D0030E042175307D1F3FA01E151FF4FCE
:1013B000808340936E00559A0895CF93DF93EC019C
:1013C0008881882329F02196E3DF89918111FCCF60
:1013D000DF91CF910895CF93DF93EC012196FC012B
:1013E0008491882331F0D4DFFE018491219681110C
:1013F000FACFDF91CF910895F89480916C002091FD
:101400006B00789490E080589F4F821B91098F77F2
:10141000992708955058BB27AA270ED0E0C0D1D0F5
:1014200030F0D6D020F031F49F3F11F41EF4C6C046
:101430000EF4E095E7FBBCC0E92FE2D080F3BA17C9
:10144000620773078407950718F071F49EF5FAC0D8
:101450000EF4E0950B2EBA2FA02D0B01B9019001CF
:101460000C01CA01A0011124FF27591B99F0593F13
:1014700050F4503E68F11A16F040A22F232F342F5B
:101480004427585FF3CF469537952795A795F040A9
:101490005395C9F77EF41F16BA0B620B730B840BBE
:1014A000BAF09150A1F0FF0FBB1F661F771F881F76
:1014B000C2F70EC0BA0F621F731F841F48F48795CE
:1014C00077956795B795F7959E3F08F0B3CF9395BD
:1014D000880F08F09927EE0F97958795089598D073
:1014E00088F09F5790F0B92F9927B751A0F0D1F00D
:1014F000660F771F881F991F1AF0BA95C9F712C097
:10150000B13081F09FD0B1E008959CC0672F782F53
:101510008827B85F39F0B93FCCF386957795679502
:10152000B395D9F73EF490958095709561957F4F6E
:101530008F4F9F4F0895E89409C097FB3EF4909514
:101540008095709561957F4F8F4F9F4F9923A9F09C
:10155000F92F96E9BB279395F6958795779567952B
:10156000B795F111F8CFFAF4BB0F11F460FF1BC06F
:101570006F5F7F4F8F4F9F4F16C0882311F096E902
:1015800011C0772321F09EE8872F762F05C06623B0
:1015900071F096E8862F70E060E02AF09A95660F69
:1015A000771F881FDAF7880F9695879597F9089522
:1015B00097F99F6780E870E060E008959FEF80EC06
:1015C000089500240A9416161706180609060895A9
:1015D00000240A9412161306140605060895092E0F
:1015E0000394000C11F4882352F0BB0F40F4BF2B7E
:1015F00011F460FF04C06F5F7F4F8F4F9F4F0895BE
:1016000057FD9058440F551F59F05F3F71F04795B3
:10161000880F97FB991F61F09F3F79F08795089598
:10162000121613061406551FF2CF4695F1DF08C0B7
:10163000161617061806991FF1CF869571056105D4
:1016400008940895E894BB2766277727CB0197F97C
:101650000895AA1BBB1B51E107C0AA1FBB1FA617F9
:10166000B70710F0A61BB70B881F991F5A95A9F74B
:1016700080959095BC01CD01089597FB072E16F437
:10168000009406D077FD08D0E4DF07FC05D03EF4D7
:10169000909581959F4F0895709561957F4F08951E
:1016A000A1E21A2EAA1BBB1BFD010DC0AA1FBB1F66
:1016B000EE1FFF1FA217B307E407F50720F0A21BD8
:1016C000B30BE40BF50B661F771F881F991F1A9445
:1016D00069F760957095809590959B01AC01BD016F
:1016E000CF010895052E97FB16F400940FD057FDF7
:1016F00005D0D6DF07FC02D046F408C050954095CF
:10170000309521953F4F4F4F5F4F089590958095AD
:10171000709561957F4F8F4F9F4F0895B7FF04C01D
:1017200003D0821B930B089509D0A59F900DB49F01
:10173000900DA49F800D911D11240895A29FB001CA
:10174000B39FC001A39F01D0B29F700D811D1124D2
:10175000911D0895FC0188279927E8942191203252
:10176000E9F3293010F02E30C8F32B3239F02D3246
:1017700031F4689403C015D0820F911D219120533C
:101780002A30C8F31EF4909581959F4F0895BB278A
:101790004A3031F4992322F4BDE2909581959F4F10
:1017A00009C07AE0979F902D879F802D910D11247D
:1017B0000895BB27FB015527AA27880F991FAA1F49
:1017C000A41710F0A41B83955051B9F7A05DAA335C
:1017D00008F0A95DA193009779F7B111B193119227
:1017E000CB0100C0DC01FC01672F71917723E1F789
:1017F000329704C07C916D9370836291AE17BF07DE
:10180000C8F30895DC01CB01FC01E199FECF06C0CD
:10181000FFBBEEBBE09A31960DB20D9241505040A5
:10182000B8F70895E199FECF9FBB8EBBE09A992748
:101830008DB30895A8E1B0E042E050E0E5CFDC01CF
:10184000CB0102C02D9105D041505040D8F70895EA
:10185000262FE199FECF9FBB8EBB2DBB0FB6F89410
:10186000E29AE19A0FBE01960895F2DF272FF1CF99
:04187000F894FFCF1A
:00000001FF
